:020000040800F2
:10000000005000203D0B00083B0B0008270B0008A8
:10001000250B0008110B0008FD0A00080000000075
:10002000000000000000000000000000FB0A0008C3
:10003000F90A000800000000F70A0008550D000842
:10004000F50A0008F50A0008F50A0008B90E0008CC
:10005000F50A0008F50A0008F50A0008F50A000884
:10006000F50A0008F50A0008F50A0008F50A000874
:10007000F50A0008F50A0008F50A0008F50A000864
:10008000F50A0008F50A0008F50A0008F50A000854
:10009000F50A0008F50A0008F50A0008F50A000844
:1000A000F50A0008F50A0008F50A0008F50A000834
:1000B000F50A0008F50A0008F50A0008F50A000824
:1000C000F50A0008F50A0008F50A0008F50A000814
:1000D000F50A0008490E0008F50A0008F50A0008AC
:1000E000F50A0008F50A0008F50A000800000000FB
:1000F0000000000000000000000000000000000000
:1001000000000000000000005FF808F1BFB55F4C80
:10011000236843F00103236062685D4B1340636012
:10012000236823F0847323F480332360236823F44B
:1001300080232360636823F4FE0363604FF41F038E
:10014000A360002301930293236843F48033236068
:10015000236803F400330293019B01330193029B54
:100160001BB9019BB3F5A06FF2D1236813F40033E0
:1001700018BF01230293029B012B06D0454B4FF081
:1001800000629A60444A454B32E0454B1A6842F09F
:1001900010021A601A6822F003021A601A6842F00C
:1001A00002021A606368636063686360636843F4B3
:1001B00080636360636823F47C136360636843F463
:1001C000E8136360236843F08073236022682F4B39
:1001D0009501FBD55A6822F003025A605A6842F032
:1001E00002025A60636803F00C03082BFAD1C5E7DA
:1001F0002C498B4204D252F8041F43F8041BF7E742
:10020000294B2A4A934203D2002243F8042BF8E7F1
:1002100062681E4902F00C02042A254B01D0082A0C
:1002200001D0244A0EE04A684868C2F38342C00302
:1002300002F1020202D54968890301D51E4900E096
:100240001C494A431A6062681C49C2F30312895C64
:100250001A681B4DCA401A601A4B00261F46ED1A39
:10026000AD10AE4204DA57F8263098470136F8E769
:10027000154B164D1F46ED1AAD100026AE4227DA7B
:1002800057F8263098470136F8E700BF00100240C3
:100290000000FFF800ED00E05025000800000020FD
:1002A00000200240D0000020D000002024020020C6
:1002B0001400002000127A0000093D000400002014
:1002C0008C0B00088C0B00088C0B00088C0B0008B2
:1002D000A369C14A43F00C03A361A369102643F04C
:1002E0000103A3615368516823F0706321F07061CA
:1002F00043F000735160012553600DEB0601FC23B0
:10030000B648ADF810308DF813608DF8125000F03B
:100310003DFC4FF480730DEB0601ADF81030B04892
:1003200028238DF8133000F031FC4FF470530DEB9F
:100330000601ADF81030AA4848238DF8133000F0BC
:1003400025FCFA230DEB0601A548ADF810308DF819
:10035000136000F01BFCE369A24A43F0C053A24EB5
:10036000E361002335601370137015701D0403D40E
:10037000226A01339707F9D5236A43F48073236215
:1003800000F0B8FC994B01221A60994A938823F037
:1003900008031B041B0C93809388954D1807FBD50D
:1003A00000F0A8FCAB884FF000089BB243F01003AC
:1003B000AB804FF40043A5F80880AB81AB884FF0C9
:1003C000010923F010031B041B0CAB8000F092FC0E
:1003D000AB88182723F001031B041B0CAB802B8870
:1003E0004FF0280A23F006031B041B0C2B802B88DC
:1003F0009BB243F001032B8000F07CFC7D4BC6F8E0
:10040000008018687C4D049004A800F01DFCE3698E
:10041000724843F00303E36104A98DF812908DF84C
:100420001370ADF8109000F0B1FB6D4804A9ADF861
:10043000109000F0ABFB4FF080431A88602122F44B
:100440005C721204120C1A804FF4E16050229A85FB
:100450001885A3F814902980A5F80880A5F80290C3
:10046000A5F806A01A8C654E22F001021204120CA7
:100470001A841A8CB3F804C0B3F818E022F0020210
:100480002EF0730E4FEA0E4E12044FEA1E4E120C5F
:100490001FFA8CFC4EEA010E42EA0902A3F804C0DE
:1004A000A3F818E0A3F834A01A841A8B22F00802EB
:1004B0001204120C42F008021A831A8892B242F017
:1004C00080021A801A8892B242EA09021A8003F561
:1004D00080631A8822F45C721204120C1A80432280
:1004E0009A85474A18851E20A3F814901180D08061
:1004F000A2F80880A2F802901A8C22F480721204EA
:10050000120C1A841A8CB3F804E0998B22F400724E
:1005100021F0730109041204090C120C1FFA8EFE5B
:1005200041F0600142F48072A3F804E09983988757
:100530001A849A8B294822F008021204120C42F005
:1005400008029A831A8803A992B242F080021A80A4
:100550001A8892B242EA09021A80A36943F48043DE
:1005600043F00503A36102238DF80E304FF40073AE
:10057000ADF80C308DF80F7000F008FB4FF480637D
:10058000ADF80C301548042303A98DF80F3000F0A6
:10059000FDFA1C4A138A23F470631B041B0C13829C
:1005A000138A23F440531B041B0C138293899BB2C0
:1005B00023F4B05323F00C0343F00C039381938A8C
:1005C00023F440731B041B0C9382636803F00C0339
:1005D000082B29D118E000BF0000014000080140AD
:1005E000000C01402010024020000E423C04424218
:1005F00000280040D222000804020020001002401F
:10060000D60000200038014073687268C3F383434A
:10061000D10303F1020302D57268920301D5B54AF2
:1006200000E0B54A534300E0B34B6268B349C2F3FC
:100630000312885C6268C340C2F302228A5C62686B
:100640006426C2F3C2228A5CAD49D3406268192491
:10065000C2F381328A5CAB4A6343928912B2002AA8
:10066000B4BF4FF496444FF41644B3FBF4F4B4FB18
:10067000F6F00001010906FB1143A24CA28912B257
:10068000002AADBF1A01D90032313232B5BFB1FBF9
:10069000F6F2B2FBF6F302F0070203F00F03B4BF69
:1006A0001043184380B22081A3890D209BB243F4EC
:1006B0000053A38100F02AFD0A2000F027FD0D2041
:1006C00000F024FD0A2000F021FD8F48002100F0F9
:1006D00027FD8E48002100F023FD8D48002100F009
:1006E0001FFD8C48002100F01BFD8B48002100F00D
:1006F00017FD8A48002100F013FD8948002100F011
:100700000FFD8848002100F00BFD8748002100F014
:1007100007FD8648002100F003FD8548002100F018
:10072000FFFC8448002100F0FBFC0221824800F01D
:10073000F7FC824B1868049004A800F085FA804A00
:10074000F0211368042043F0200313607D4B7E4AA0
:100750005A607E4A82F8231000229A6007221A60AB
:100760007B4B02225A6101225A617A4A138823F094
:1007700001031B041B0C138000F056FA44F6A74338
:1007800098420ED1082000F04FFA04460C2000F0E9
:100790004BFA714B00EB04401860102000F044FA53
:1007A000E8806E4B6E4C18689B88049004A8ADF8E6
:1007B000143000F0C5FB00F0A5FA2060204600F0E0
:1007C000F5FC0746674801F0E5F8DFF89891002846
:1007D0006DD065484946072200F0A2FD064618B1D3
:1007E000002389F800306BE06049484601F0DAF8F0
:1007F00031460130102201F073F90123C0B219F81B
:10080000032032B12A2A04D056400133F6B2DBB2BB
:10081000F5E7B042E4D199F90730DFF848812C2B95
:10082000DED04F4800F0C2FC002106460A2208F143
:10083000070001F055F942F21073B0FBF3F36422A4
:10084000B360B0FBF2F3B3FBF2F102FB113102FB38
:1008500013037160336000210A2208F1110001F0D6
:100860003FF90021F0600A2208F1140001F038F984
:100870000A220021306108F1170001F031F9A0F2DD
:100880006C707061304600F03DFE00F019FC2A48A3
:10089000002100F045FC2368354A03F60963136024
:1008A000344B01221A70002388F8003008E0304BE6
:1008B0001A6823689A4203DA1F48022100F030FCCC
:1008C000DFF8B88004A8394600F072FB98F80030D1
:1008D000294E013B042B00F2D980DFE803F003A38B
:1008E000C16C5100234A1378B3FA83F35B09137088
:1008F000CCE000BF00093D0000127A001800002083
:100900000000002000380140EC220008F02200081E
:10091000F4220008F8220008FC2200080023000846
:1009200004230008082300080C23000810230008F3
:1009300014230008182300081C230008D6220008EE
:100940000C38014010E000E03F19010000ED00E02C
:10095000000C01400004004074010020DA2200086D
:10096000000200207901002020230008282300082D
:10097000E8000020D4000020EC00002078010020D6
:10098000534B197851B1534A1378B3FA83F35B0987
:100990001370327883F0010313435FE04E4B1A78F3
:1009A0000132D2B21A701A78052A82BF1970012258
:1009B00032701B786AE0EB884FF0500E0A339BB21E
:1009C000B3FBFEF20EFB123E1FFA8EFEA5F806E008
:1009D0004FF080431A8C22F001021204120C1A8488
:1009E0001A8CB3F80490B3F818C022F002002CF06F
:1009F00073010904B5F800C0090C6A8841EA0C0CBF
:100A000029890004000C0A4302431FFA89F992B2B3
:100A1000A3F80490A3F818C0A3F834E01A8400F0F7
:100A200065FA33E02B4B1B7863B14CF2E0412B4A63
:100A3000136803F5E1638B42C8BF294B136000F0D4
:100A400055FA0AE000F05EF9234B1A78254B33F88B
:100A500012301844206000F033FB0123337015E09E
:100A60001C4B1B784BB11D4A1D491368A3F5E1636C
:100A70008B42B8BF4CF2E043E0E700F043F9164B7D
:100A80001A78184B33F81230C01AE3E73278002393
:100A900088F80030002A3FF495AE134A03A813707B
:100AA0000E4B22681B681344039300F07FFB07463C
:100AB00004A8394600F07CFA04A800F041FA0B4B78
:100AC00080221A610A4B4FF4FA721A807AE600BF4C
:100AD000D4000020EE000020ED0000207401002072
:100AE0004057FFFFE0220008EC000020000C01400E
:100AF000F0000020FEE7FEE7FEE7FEE71EF0040F31
:100B00000CBFEFF30880EFF3098071461B4A1047D2
:100B10001EF0040F0CBFEFF30880EFF3098071465D
:100B2000174A1047FEE71EF0040F0CBFEFF30880D2
:100B3000EFF309807146134A1047FEE71248004759
:100B4000FEE7FEE70C4A10B5136B9B0712D5D36A7C
:100B5000002B0FDA4BF6AB6183691C888C4209D1FC
:100B600001680339012905D8023383614FF000433E
:100B7000D36210BDFEE700BF00ED00E0410B0008AE
:0C0B8000430B0008450B00080D010008A5
:100B8C00CA78F0B5D40648BF8C780D8802F00F03F4
:100B9C0048BF234315F0FF0F1DD001680024012628
:100BAC00A64006EA0507B74211D14FEA840E0F267C
:100BBC0006FA0EF621EA0601282A03FA0EF641EA95
:100BCC00060101D1476102E0482A08BF07610134E0
:100BDC00082CE4D10160FF2D1FD94168002404F1D9
:100BEC0008070126BE4006EA0507B74211D14FEAB5
:100BFC00840E0F2606FA0EF621EA0601282A03FABD
:100C0C000EF641EA060101D1476102E0482A08BF0D
:100C1C0007610134082CE2D14160F0BD82B00023A1
:100C2C000193054B0193019B18440190019B18887B
:100C3C0080B202B0704700BF006C0040C27810B5A3
:100C4C0003780AB3164A03F16043D4684278E4434C
:100C5C00C4F30224C4F1040102FA01F10F22E240B0
:100C6C00847803F5614322400A431201D2B283F81F
:100C7C00002303780122590903F01F0302FA03F33E
:100C8C00084A42F8213010BD5A09012103F01F0314
:100C9C00994002F12003034A42F8231010BD00BF13
:100CAC0000ED00E000E100E008B50C4B1A680AB951
:100CBC000B4A1A601A68C31C23F003030949134436
:100CCC008B4206D900F066FA0C2303604FF0FF301C
:100CDC0008BD024910460B6008BD00BFD0000020C3
:100CEC0024020020004C0020024B9B889B06FBD565
:100CFC00704700BF00280040034A938B108B9BB2B7
:100D0C0043EA0040704700BF0028004082B0002337
:100D1C000193044B0193019B18440190019B1960B2
:100D2C0002B07047006C0040054A0649D368095C64
:100D3C0023F0780343EAC1039BB2D360704700BF32
:100D4C00000C01404F230008294A138801339BB241
:100D5C00138013889BB27D2B07D900231380254A5F
:100D6C001378B3FA83F35B091370234B23499A6806
:100D7C00234892B202F480739BB25BB912F4806F79
:100D8C001ED012F4006F1DD012F4005F1CD0D204E0
:100D9C001CD503E0012302789A4219D000220A7074
:100DAC000370184A13889BB203B31388013B9BB2A0
:100DBC00138013889BB2CBB90F4B80225A617047BA
:100DCC000423E8E70323E6E70223E4E70523E2E74D
:100DDC0009780A4A0A29E4D811780A2904BF0A4971
:100DEC000B7013780133DBB21370DAE7704700BF76
:100DFC0072010020F9010020000C0140FB010020D1
:100E0C00FC010020F000002078010020094BFC229E
:100E1C005A6120B1084A013832F810201A6100BF1B
:100E2C0000BF00BF00BF00BF00BF00BF00BFFC225F
:100E3C005A617047000801402A23000838B5174B47
:100E4C001A8812F0200F1A4626D0154B19787D29D6
:100E5C0001D900211970908812491A78104C8854C5
:100E6C001A788A560A2A12D122780A4412F9012CCD
:100E7C000D2A0CD122780C4D013A284600F05AFA72
:100E8C0020780023284400F8013C237038BD1A78E0
:100E9C000132D2B21A7038BD38BD00BF00380140E3
:100EAC00FA010020F200002079010020094A08B55F
:100EBC009388DB070CD5938823F001031B041B0CD0
:100ECC009380054B01221A70FFF716FF034B186035
:100EDC0008BD00BF00280040EC00002000020020EC
:100EEC0038B5104C104A01232360938E04209BB21A
:100EFC0043F00103938644F6A741FFF707FF0B4B22
:100F0C0008201D68290CFFF701FF0C20A9B2FFF780
:100F1C00FDFE074B1020D988FFF7F8FE0023236055
:100F2C0038BD00BF20000E42006C00407401002050
:100F3C00040200201A4BFC2210B504465A6100BF73
:100F4C0000BF00BF00BF00BF00BF00BF00BF0078E4
:100F5C00FFF7EAFE0120FFF759FF6078FFF7E4FE88
:100F6C000220FFF753FFA078FFF7DEFE0320FFF708
:100F7C004DFFE078FFF7D8FE0420FFF747FF2079FC
:100F8C00FFF7D2FE0520FFF741FF6079FFF7CCFE9B
:100F9C000620FFF73BFFBDE810400020FFF7C4BE62
:100FAC0000080140F8B53F4E04463378002B3CD086
:100FBC00002303703C4B1B782BB10F210522013011
:100FCC0000F09AF957E0394D2B68002BB4BF0E2373
:100FDC000F23437028684FF4616390FBF3F000F02B
:100FEC00D5F887B228683C2590FBF5F000F0CEF8D8
:100FFC0090FBF5F303FB15000A23B7FBF3F285B264
:10100C0090B2B0FBF3F103FB1101B5FBF3F003FB62
:10101C001272A17081B2E270B1FBF3F203FB1055B6
:10102C0003FB12126571227125E0087A0C23B0FBC8
:10103C00F3F203FB120313F0FF034FF00A0208BF95
:10104C000C23B3FBF2F002FB1033207063704B687F
:10105C0093FBF2F3A370486890FBF2F302FB1303CB
:10106C00E3700B6893FBF2F32371096891FBF2F3C5
:10107C0002FB131262710E4B1A7872B10A4A127883
:10108C0032B119780F2262541B78012B08BF2270E1
:10109C002046BDE8F840FFF74DBF3378002BF7D161
:1010AC00F8BD00BFEE000020F90100207401002003
:1010BC00ED00002070B504460E4E01253560FFF79B
:1010CC0013FE0D4A93889BB243F010039380230CBC
:1010DC00A4B213839483938823F010031B041B0C7A
:1010EC009380FFF701FE00233360FFF7FDFD034BF8
:1010FC001D7070BD20000E4200280040EC00002046
:10110C00034BC0F3080098801A885206FCD5704730
:10111C000038014010B58AB002460B4602A81849A7
:10112C0000F00EFC2420FFF7EBFF00231A460AA860
:10113C0099B2014411F8200C50B144B21149C4F3D6
:10114C0008048C80424008884006FCD50133EEE749
:10115C000D4901A800F0F4FB2A20FFF7D1FF9DF9FF
:10116C000400FFF7CDFF9DF90500FFF7C9FF0D2027
:10117C00FFF7C6FF0A20FFF7C3FF0AB010BD00BF80
:10118C0036230008003801404A2300080028B8BF65
:10119C0040427047014B1868704700BF8800002020
:1011AC0038B5074B05461C68E36B1BB9242000F0CF
:1011BC009BF8E0632846E16BBDE8384000F002B8CC
:1011CC00880000200068444AF0B590FBF2F302FB63
:1011DC001302002ABCBF02F5A83202F5C0724FF40C
:1011EC00616492FBF4F004FB10224FF03C04886025
:1011FC0092FBF4F004FB1022A3F52C53B4BF0A3B72
:10120C00093B48600A60D81C072290FBF2F2C2EB43
:10121C00C202821A48BF07328A6148F6AC62002BC0
:10122C00BCBF03F50E3303F2B12393FBF2F240F291
:10123C00B556B4BF4FF0FF370027284C042A08BF1F
:10124C00032204FB023393FBF6F640F26D15244C9B
:10125C006FF4B67004FB063393FBF5F5042D08BF51
:10126C00032500FB05334FF4C8707843642400F564
:10127C00FA6004FB020000EB8600284425B92EB965
:10128C00B2FA82F2520902E0002200E0012203F1DC
:10129C003B0402F5B6751444A542BFBF6FF4B67596
:1012AC00AD1A01306419A0F26C70CC614861022255
:1012BC000C4850F82200834206DB01320C2AA3EBC7
:1012CC000003A8BF0022F3E70133CB6000230A61BF
:1012DC000B620846F0BD00BF805101005471FFFF46
:1012EC004BFAFFFFF0230008024B0146186800F090
:1012FC00C1BA00BF8800002010B5C9B202449042A8
:10130C00034605D01C7801308C42F8D1184610BD2C
:10131C00002010BD10B50A44441E914208D014F8A8
:10132C00013F0878834201D0181A10BD0131F4E74F
:10133C00002010BD10B5431E0A44914204D011F890
:10134C00014B03F8014FF8E710BD000037B50168F9
:10135C0004463B2911D93C22684600F06FFC019AE7
:10136C006168009B002A0B446360BBBF3C3203F1F5
:10137C00FF3322602260B8BF636061683B2911D9DA
:10138C003C22684600F05AFC019AA168009B002A96
:10139C000B44A360BBBF3C3203F1FF33626062605D
:1013AC00B8BFA360A168172911D91822684600F0AC
:1013BC0045FC019AE168009B002A0B44E360BBBF2B
:1013CC00183203F1FF33A260A260B8BFE360216959
:1013DC000B2911D90C22684600F030FC019A616986
:1013EC00009B002A0B446361BBBF0C3203F1FF333B
:1013FC0022612261B8BF636163699D0712D16421C8
:10140C0093FBF1F201FB123272B903F26C734FF4DD
:10141C00C87193FBF1F201FB1233002B14BF1C2398
:10142C001D2302E01C2300E01D23E268002A37DCA8
:10143C00E568002D5CDC21690139216101311CD189
:10144C0063690B22591E88076161226112D16422E3
:10145C0091FBF2F002FB101171B903F26B734FF4B4
:10146C00C87293FBF2F102FB1133002B14BF1C2347
:10147C001D2302E01C2300E01D232269012A0EBF5C
:10148C001A461C4951F822202A44E260D0E79942BE
:10149C002EDD18460132091A0C2AE160226109D0AE
:1014AC002269E168012AF2D0124850F822008142E8
:1014BC00F0DC1DE0636900215A1C21619107626117
:1014CC0012D1642092FBF0F100FB112272B903F2ED
:1014DC006D734FF4C87193FBF1F201FB1233002BC7
:1014EC0014BF1C231D23DBE71C23D9E71D23D7E7DF
:1014FC0003B030BD902300082DE9F047804600F082
:10150C00B1FB81464046FFF721FF98E80C003C20D8
:10151C0000FB0323D8F808204FF4616707FB023067
:10152C00D8F81030AE4AD8F80C4052F82320013CC1
:10153C00012B1444D8F8143011DD9A070FD1642113
:10154C0093FBF1F201FB123242B903F26C754FF4CA
:10155C00C87295FBF2F102FB115202B9013444F648
:10156C00206103F51C5210328A42C8F81C401E46FA
:10157C0000F23181462B21DD46218F0714D16425E1
:10158C0091FBF5F205FB12128AB901F26C774FF45C
:10159C00C87297FBF2F502FB1572002A40F26D122D
:1015AC0008BF4FF4B77204E040F26D1201E04FF443
:1015BC00B772013199421444DFD143E042D0452146
:1015CC0099421EDD8E0714D1642591FBF5F205FBC3
:1015DC0012128AB901F26C764FF4C87296FBF2F5CE
:1015EC0002FB1562002A40F26D1208BF4FF4B7726D
:1015FC0004E040F26D1201E04FF4B772A41A013905
:10160C00DEE7452BA8BF45239D071E4614D1642257
:10161C0093FBF2F302FB13638BB906F26C714FF47C
:10162C00C87391FBF3F203FB1213002B40F26D1302
:10163C0008BF4FF4B77304E040F26D1301E04FF4B0
:10164C00B773E41A674F07FB040700F0F5FA664B13
:10165C001D68002D00F0AA80D8F82030D8F81400AE
:10166C00012BA8BF01239A46D9F8043000F26C7004
:10167C0098420DD1D9F83820D9F82030D9F83C004F
:10168C00D9F81C10D51AAF42A1EB000105DA07E01E
:10169C0000F02EFA0028EDD17BE0121A974278DB8D
:1016AC00D9F8002012B18F427BDB01E08F4207DAC0
:1016BC00AF42ACBF00250125BAF1000F04DA69E096
:1016CC00BAF1000F68DB012585EA0A0ABAF1010FAD
:1016DC0060D11B1A05B95B42D8F8002040461A4469
:1016EC00C8F800201F44D8F80CA0FFF72FFED8F83C
:1016FC000C30B3EB0A034DD0012B03DC981CD8BF84
:10170C00012301E04FF0FF33D8F81C201C449B1838
:10171C001DD5731E990714D1642193FBF1F201FBC3
:10172C0012338BB906F26B764FF4C87296FBF2F358
:10173C0002FB1366002E40F26D1318BF4FF4B67304
:10174C0024E04FF4B67321E040F26D131EE0B207B3
:10175C0014D1642196FBF1F201FB12628AB906F2F4
:10176C006C764FF4C87196FBF1F201FB1266002EF9
:10177C0040F26D1208BF4FF4B77204E040F26D12E4
:10178C0001E04FF4B7729A42D8BF9B1AC8F81C30CC
:10179C0000E05546012D09D1D9F83C0001253E1831
:1017AC0007E0BAF1000F4FF000058DDAD9F82000F0
:1017BC003E1800F042FA0434072394FBF3F3C3EB16
:1017CC00C303E41A48BF0734C8F82050C8F81840BF
:1017DC003046BDE8F0874FF0FF30BDE8F08700BF22
:1017EC0060230008805101001C02002030B5002944
:1017FC003CD051F8042C0B1F1D49002AB8BF9B1874
:10180C000A680C4612B95A600B6030BD93420DD277
:10181C0019685818904201BF5A5852181A604268F9
:10182C0023605A6030BD994203D80A46516800299A
:10183C00F9D1146815199D420AD11B682344D0189C
:10184C008842136012D10868034413604B680CE0A3
:10185C0002D90C23036030BD1C681819884201BFE3
:10186C0008684968001918605960536030BD00BFA2
:10187C001802002070B5CC1C24F0030408340C2C86
:10188C0038BF0C24002C064603DA0C2333600020EE
:10189C0070BD8C42F9D3204A136810461946A1B189
:1018AC000A68121B0ED40B2A03D90A608B188C50B1
:1018BC001FE08B420BBF5A684A6802605A6018BF1F
:1018CC000B4616E00B464968E9E7144D2B681BB92B
:1018DC00304600F025F828603046214600F020F80C
:1018EC00421C0346D1D0C51C25F0030585420AD104
:1018FC001C6003F10B001A1D20F00700821A0AD09D
:10190C005142995070BD3046E91A00F009F8013087
:10191C00BBD02B46ECE770BD18020020140200204F
:10192C0038B5064C0023054608462360FFF7BCF982
:10193C00431C02D1236803B12B6038BD2002002068
:10194C000EB400B54FF402719CB0ADF814106FF0EA
:10195C000041049107914FF6FF711DABADF81610C5
:10196C00084953F8042B02900690086802A90193C9
:10197C0000F0D6F9029B00221A701CB05DF804EB43
:10198C0003B0704788000020034613F8012B002A8F
:10199C00FBD1181A0138704730B5037823B90B788E
:1019AC00002B18BF002030BD03461A7801303AB125
:1019BC0000228C5C34B19D5CA542F5D10132F8E774
:1019CC00104630BD184630BD2DE9F0470F46404C4F
:1019DC00D4F800903D4615F801EB09EB0E0466783F
:1019EC0006F0080404F0FF060CB12F46F2E774462B
:1019FC002D2C03D1BD1C7C78012603E02B2C04BFBD
:101A0C007C78BD1C13B1102B0AD15AE0302C56D166
:101A1C002C7804F0DF04582C4CD16C781023023550
:101A2C00002E14BF4FF000486FF00048B8FBF3FADB
:101A3C000027BE4603FB1A8809EB040C9CF801C076
:101A4C001CF0040F01D0303C0BE01CF0030C1BD03D
:101A5C00BCF1010F0CBF4FF0370C4FF0570CCCEB17
:101A6C0004049C4210DAB7F1FF3F0AD0D64506D8E1
:101A7C0001D1444503DC03FB0E4E012701E04FF07E
:101A8C00FF3715F8014BD7E77C1C73460AD1002EA3
:101A9C004FF0220114BF4FF000436FF00043016080
:101AAC002AB911E00EB1CEF100036AB107B1691E7B
:101ABC00116009E03024002BB2D10823B0E70A23CF
:101ACC00AEE7302CACD1A3E71846BDE8F08700BFD9
:101ADC008C00002030B505460C461346034A2946B7
:101AEC0010682246BDE83040FFF76EBF880000202A
:101AFC002DE9F047044600F0B5F840F2B1739C4272
:101B0C0040F3938040F26D166FF4F66E04EB0E0307
:101B1C00A4F2B2729B1006FB02366FF06303A4F2C0
:101B2C006D7292FBF3F26FF4C86CB3184FF4C87576
:101B3C0004EB0C0696FBF5F61E44642394FBF3FEB3
:101B4C0003FB1E4E94FBF5F305FB1345B5FA85F527
:101B5C00014644606D0900F1380C0B7A4A2B11D107
:101B6C004B69A70706EB030202D1BEF1000F00D1AF
:101B7C0025B13B2BD4BF0023012300E02B4613449B
:101B8C00013B3EE0442B02D14B69334439E0A207C0
:101B9C0005D1BEF1000F0CBF2B46012300E02B46F4
:101BAC00B246234A4FF0300909FB0329CA68A9F150
:101BBC0004070123934204DA57F8048F0133C2441B
:101BCC00F8E7012AB8BF0122904607270AF1040260
:101BDC0092FBF7F7C7EBC707D71B4A6908F1804898
:101BEC00D21B0F6948BF0732013FC7EBC70708F18B
:101BFC00FF38BB1859F82820934201DB073BFBE761
:101C0C0053448A690B4F07FB03230F6A3B4441F88B
:101C1C001C3F6145A1D1C369826B9342ACBF0023C9
:101C2C00012303600120BDE8F0870020BDE8F087A8
:101C3C00C0230008805101007047704710B591FB1C
:101C4C00F2F4002902FB141304DB002B07DA013435
:101C5C009B1A04E0002BC4BF04F1FF349B180460F2
:101C6C00436010BD00487047900000202DE9F047FC
:101C7C008E688246B3420C469046994640D38A8978
:101C8C0012F4906F3AD02568096902236F1A6569BE
:101C9C0005EB450595FBF3F57B1C4B449D4238BF8A
:101CAC001D4653050FD52946FFF7E4FD064698B1AE
:101CBC0021693A46FFF73EFBA38923F4906343F076
:101CCC008003A38113E02A4600F0CDFA064670B9D2
:101CDC0050462169FFF78AFD0C23CAF80030A3890E
:101CEC004FF0FF3043F04003A381BDE8F08726613D
:101CFC003E4426604E466561ED1BA560B14500D2A1
:101D0C004E4632462068414600F092FAA368002005
:101D1C009B1BA36023681E442660BDE8F08700006F
:101D2C002DE9F0439DB003938B8906461C060D46A6
:101D3C0090460CD50B6953B94021FFF79BFD2860E9
:101D4C00286110B90C233360CCE040236B61002375
:101D5C00099320238DF8293030238DF82A304346FF
:101D6C001C4613F8012B1AB9B4EB08090FD002E08A
:101D7C00252AF5D1F8E73046294642464B46FFF76F
:101D8C0075FF013000F0A980099B4B44099323781F
:101D9C00002B00F0A28000234FF0FF320493079336
:101DAC00059206938DF853301A9304F101084446BA
:101DBC00DFF84891217848460522FFF79DFA08F193
:101DCC000108049B30B1C9EB00000122824013438F
:101DDC000493ECE7D80644BF20228DF85320190752
:101DEC0044BF2B228DF8532022782A2A02D007993F
:101DFC0023460EE0039A0134111D12680391002A48
:101E0C00BBBF524243F0020307920792B8BF049340
:101E1C000AE01C4622780133303A092A03D80A20FA
:101E2C0000FB0121F5E7079123782E2B1AD163785B
:101E3C002A2B0AD1039B02341A1D1B680392002B18
:101E4C00B8BF4FF0FF3305930CE0611C00220C4629
:101E5C0023780131303B092B03D80A2000FB0232D6
:101E6C00F5E70592DFF89880217840460322FFF7CA
:101E7C0043FA38B1049AC8EB000040238340134363
:101E8C000493013421781A48062204F101088DF8D4
:101E9C002810FFF731FA88B1164B33B9039B07337F
:101EAC0023F007030833039313E003AB009330468E
:101EBC0004A92A46104BAFF3008007E003AB009354
:101ECC00304604A92A460C4B00F092F8421C0746F7
:101EDC0003D0099B3B44099341E7AB895B0601D4D2
:101EEC00099801E04FF0FF301DB0BDE8F08300BF52
:101EFC002B25000800000000791C00082125000893
:101F0C00272500082DE9F84391461F468A680B697E
:101F1C0006469342B8BF1346C9F8003091F84320E7
:101F2C000C46DDF8208012B10133C9F8003023686B
:101F3C00990642BFD9F800300233C9F80030256841
:101F4C0015F006051CD094F843302268003318BFF6
:101F5C00012392061FD5E118302081F843005A1C4A
:101F6C0094F845102244023382F8431013E03046B3
:101F7C00394604F119020123C047013007D001355D
:101F8C00E368D9F800209B1A9D42F0DBDBE74FF0A9
:101F9C00FF30BDE8F8833046394604F14302C047B0
:101FAC000130F4D02268D9F80050E36802F0060240
:101FBC00042A08BF5D1B2269A3680CBF25EAE575DE
:101FCC0000259342C4BF9B1AED184FF00009A94598
:101FDC000ADA3046394604F11A020123C0470130AF
:101FEC00D5D009F10109F2E70020BDE8F883000023
:101FFC002DE9FF410C461746227E98466E2A06466E
:10200C000A9B01F1430100F0B08012D8632A23D05F
:10201C000AD8002A00F0BD80582A40F0CC8084F801
:10202C004520DFF804E257E0642A1ED0692A1CD050
:10203C00C1E0732A00F0B18009D86F2A2ED0702A23
:10204C0040F0B980226842F0200222603FE0752AFD
:10205C0024D0782A3BD0AEE01A6804F14205111D59
:10206C001960136884F84230A9E020681A6810F0EF
:10207C00800F02D0101D186008E010F0400F02F124
:10208C000400186002D0B2F9003000E01368002B95
:10209C003EDA2D225B4284F8432039E020681A682E
:1020AC0010F0800F02D0101D186007E010F0400FE8
:1020BC0002F10400186001D0138800E01368227E3E
:1020CC00DFF864E16F2A0CBF08220A221CE0782298
:1020DC00DFF858E184F845202268186812F0800F68
:1020EC0000F104051D6003D1550601D5038800E0FD
:1020FC000368D00744BF42F0200222601BB922685B
:10210C0022F0200222601022002084F8430002E01A
:10211C00DFF814E10A226568002DA8BF2068A560CD
:10212C00A4BF20F00400206003B965B10D46B3FBD9
:10213C00F2F002FB10331EF8033005F8013D0346A4
:10214C000028F4D100E00D46082A0BD12368DA07E9
:10215C0008D5236962689A42DEBF302305F8013C3A
:10216C0005F1FF35491B21612EE025681A6815F031
:10217C00800F606903D0151D1D60136808E015F011
:10218C00400F02F104051D60136801D0188000E0B7
:10219C001860002323610D4616E01A68111D1960A2
:1021AC001568002128466268FFF7A6F808B1401BA5
:1021BC006060636804E004F1420584F84220012366
:1021CC002361002384F84330CDF80080304621464B
:1021DC0003AA3B46FFF796FE013002D14FF0FF30C9
:1021EC001FE0304639462A462369C0470130F5D0F6
:1021FC0023689B0705D4E068039B9842B8BF184638
:10220C000FE00025E368039A9B1A9D42F3DA3046EF
:10221C00394604F119020123C0470130DED00135E3
:10222C00F0E704B0BDE8F081322500084325000832
:10223C00814210B501EB020301D3421E0BE0984220
:10224C00FBD28118D21AD34204D013F8014D01F8F5
:10225C00014DF8E710BD994204D011F8014B02F87A
:10226C00014FF8E710BDF8B5074615460E4621B9E3
:10227C001146BDE8F840FFF7FDBA1AB9FFF7B6FAF8
:10228C002846F8BD00F015F8A8420ED2384629466B
:10229C00FFF7F0FA044650B131462A46FFF74AF8E8
:1022AC0038463146FFF7A2FA01E03046F8BD204629
:1022BC00F8BD51F8040C0028BEBF091851F8043CB5
:1022CC00C0180438704703010201250101010F0EEB
:1022DC000E0E0E0F0000100E58023C000A000100FA
:1022EC0044544D004742530047474100474C4C0073
:1022FC004750510047525300475341004753540035
:10230C0047535600524D430054485300565447000F
:10231C005A4441002447505A44412C002A000400DE
:10232C0008001000200040008000505542582C340A
:10233C00302C25732C302C25642C302C300025307F
:10234C003258000008040C020A060E0109050D03A0
:10235C000B070F00000000001F0000003B000000F6
:10236C005A0000007800000097000000B500000043
:10237C00D4000000F3000000110100003001000047
:10238C004E0100001F0000001C0000001F00000098
:10239C001E0000001F0000001E0000001F000000B7
:1023AC001F0000001E0000001F0000001E000000A7
:1023BC001F0000001F0000001C0000001F00000098
:1023CC001E0000001F0000001E0000001F00000087
:1023DC001F0000001E0000001F0000001E00000077
:1023EC001F0000001F0000001D0000001F00000067
:1023FC001E0000001F0000001E0000001F00000057
:10240C001F0000001E0000001F0000001E00000046
:10241C001F00000000202020202020202020282821
:10242C002828282020202020202020202020202088
:10243C0020202020208810101010101010101010C8
:10244C0010101010100404040404040404040410F8
:10245C001010101010104141414141410101010186
:10246C000101010101010101010101010101010150
:10247C00101010101010424242424242020202025C
:10248C000202020202020202020202020202020220
:10249C0010101010200000000000000000000000D0
:1024AC000000000000000000000000000000000020
:1024BC000000000000000000000000000000000010
:1024CC000000000000000000000000000000000000
:1024DC0000000000000000000000000000000000F0
:1024EC0000000000000000000000000000000000E0
:1024FC0000000000000000000000000000000000D0
:10250C0000000000000000000000000000000000BF
:10251C000000000000232D302B2000686C4C00655F
:10252C0066674546470030313233343536373839F3
:10253C004142434445460030313233343536373826
:08254C003961626364656600F9
:102554000204060800000000000000000102030459
:102564000607080900A24A0400000000010203044F
:10257400010203040607080900000000000000002F
:102584000000000000000000000000000000000047
:1025940000000000000000001223000800000000FA
:1025A4000000000000000000000000000000000027
:1025B4000000000000000000000000000000000017
:1025C4000000000000000000000000000000000007
:1025D4000000000000000000280000202024000863
:1025E40001000000000000004A000000000000009C
:1025F40000000000000000000000000000000000D7
:10260400000000004A00000000000000000000007C
:1026140000000000000000000000000000000000B6
:040000050800010DE1
:00000001FF
