:020000040800F2
:10000000005000205B01000859010008430100086E
:10001000410100082B010008150100080000000044
:1000200000000000000000000000000013010008B4
:1000300011010008000000000F010008310800084D
:100040000D0100080D0100080D01000861090008FC
:100050000D0100080D0100080D0100080D01000848
:100060000D0100080D0100080D0100080D01000838
:100070000D0100080D0100080D0100080D01000828
:100080000D0100080D0100080D0100080D01000818
:100090000D0100080D0100080D0100080D01000808
:1000A0000D0100080D0100080D0100080D010008F8
:1000B0000D0100080D0100080D0100080D010008E8
:1000C0000D0100080D0100080D0100080D010008D8
:1000D0000D0100080D0100080D0100080D010008C8
:1000E0000D0100080D0100080D01000800000000CE
:1000F0000000000000000000000000000000000000
:1001000000000000000000005FF808F1FEE7FEE7D5
:10011000FEE7FEE71EF0040F0CBFEFF30880EFF3DD
:1001200009807146DFF8D82610471EF0040F0CBF77
:10013000EFF30880EFF309807146DFF8C826104717
:10014000FEE71EF0040F0CBFEFF30880EFF3098009
:100150007146DFF8B4261047FEE7DFF8B006004727
:10016000FEE7FEE70C4A10B5136B9B0712D5D36A66
:10017000002B0FDA4BF6AB6183691C888C4209D1E6
:1001800001680339012905D8023383614FF0004328
:10019000D36210BDFEE700BF00ED00E05F4C8FB5FD
:1001A000236843F00103236062685D4B1340636082
:1001B000236823F0847323F480332360236823F4BB
:1001C00080232360636823F4FE0363604FF41F03FE
:1001D000A360002300930193236843F480332360DA
:1001E000236803F400330193009B01330093019BC8
:1001F0001BB9009BB3F5A06FF2D1236813F4003351
:1002000018BF01230193019B012B06D0454B4FF0F2
:1002100000629A60444A454B32E0454B1A6842F00E
:1002200010021A601A6822F003021A601A6842F07B
:1002300002021A606368636063686360636843F422
:1002400080636360636823F47C136360636843F4D2
:10025000E8136360236843F08073236022682F4BA8
:100260009601FBD55A6822F003025A605A6842F0A0
:1002700002025A60636803F00C03082BFAD1C5E749
:100280002C498B4204D252F8041F43F8041BF7E7B1
:10029000294B2A4A934203D2002243F8042BF8E761
:1002A00062681E4902F00C02042A254B01D0082A7C
:1002B00001D0244A0EE04A684868C2F38342C5036D
:1002C00002F1020202D54968880301D51E4900E007
:1002D0001C494A431A6062681C49C2F30312895CD4
:1002E0001A681B4DCA401A601A4B00261F46ED1AA9
:1002F000AD10AE4204DA57F8263098470136F8E7D9
:10030000154B164D1F46ED1AAD100026AE4227DAEA
:1003100057F8263098470136F8E700BF0010024032
:100320000000FFF800ED00E0CC0D00080000002008
:10033000002002407800002078000020B800002053
:100340001000002000127A0000093D00000000208B
:10035000100800081008000810080008100800081D
:10036000A369BF4A43F00C03A361A369012543F0CD
:100370000103A3615368516823F0706321F0706139
:1003800043F00073516010265360B648FC2302A965
:10039000ADF808308DF80A508DF80B6000F0FAFACD
:1003A0004FF48073ADF80830AF48282302A98DF8C8
:1003B0000B3000F0EFFA4FF47053ADF80830AA4854
:1003C000482302A98DF80B3000F0E4FAFA23A6487E
:1003D00002A9ADF808308DF80B6000F0DBFAE36994
:1003E000A24A43F0C053A24FE36100233D60137063
:1003F000137015701A0403D4226A01339107F9D5DA
:10040000236A43F48073236200F074FA994B01224B
:100410001A60994A938823F008031B041B0C9380ED
:100420009388954D1B07FBD500F064FAAB88002636
:100430009BB243F01003AB804FF400432E81AB819D
:10044000AB88DFF8248223F010031B041B0CAB8065
:1004500000F050FAAB884FF0280923F001031B0489
:100460001B0CAB802B8823F006031B041B0C2B807A
:100470002B889BB243F001032B8000F03BFA3E60D7
:100480007E4F0125FB687E4ADB43C3F30223C3F1A1
:10049000040305FA03F31B01DBB282F803330823DC
:1004A0001360E3696F4843F00303E36102A9182373
:1004B0008DF80B308DF80A50ADF8085000F06AFA4C
:1004C000404602A9ADF8085000F064FA4FF08043AE
:1004D0001A886C4C22F45C721204120C1A8060218F
:1004E0004FF4E16050229A8518859D8221802681F3
:1004F0006580A4F806901A8C22F001021204120CF6
:100500001A841A8CB3F804C0B3F818E022F002027F
:100510002EF0730E4FEA0E4E12044FEA1E4E120CCE
:100520001FFA8CFC4EEA010E2A43A3F804C0A3F87C
:1005300018E0A3F834901A841A8B22F008021204EF
:10054000120C42F008021A831A8892B242F080021A
:100550001A801A8892B22A431A8003F580631A8897
:1005600022F45C721204120C1A8043229A85464AC5
:1005700018851E209D8211801681D08055801A8C8E
:1005800022F480721204120C1A841A8CB3F804E05C
:10059000998B22F4007221F0730109041204090CF2
:1005A000120C1FFA8EFE41F0600142F48072A3F833
:1005B00004E0998398871A849A8B344922F00802C0
:1005C0001204120C42F008029A831A8892B242F086
:1005D00080021A801A8892B22A431A802C4A5160EB
:1005E000F02187F82310072196601160C8F8145095
:1005F0001A88284E22F001021204120C1A80264B8F
:1006000018689B88029002A8ADF80C3000F028FA18
:1006100000F09CF93060304600F080FA0746397AE5
:100620000C23B1FBF3F203FB121313F0FF034FF0A3
:100630000A0208BF0C23B3FBF2F102FB11338DF861
:1006400008108DF809307968DFF8509091FBF2F3CB
:100650008DF80A3002FB13138DF80B3039681FE058
:100660000000014000080140000C01402010024041
:1006700020000E423C0442420028004000ED00E011
:1006800000E100E09C000020780000203F190100FC
:1006900010E000E098000020400D000894000020C9
:1006A0004F4D91FBF2F302FB13128DF80C3099F8C9
:1006B00000308DF80D20013BDFF83481042B60D829
:1006C000DFE803F0034A52160700464800F01AF923
:1006D00057E02B780133DBB22B702B78052B05D933
:1006E0003F4B002202A81A7000F0BAF92B7848E0BC
:1006F000E38850200A339BB2B3FBF0F200FB1230C8
:1007000080B2E0804FF080431A8C22F00102120484
:10071000120C1A841A8CB3F804C0B3F818E022F053
:10072000020A2EF073010904B4F800E0090C628893
:1007300041EA0E0E21894FEA0A4A4FEA1A4A0A4351
:100740004AEA02021FFA8CFC92B2A3F804C0A3F892
:1007500018E098861A8414E000F0F8F82A78224B02
:1007600033F81230184406E000F0F0F82A781E4BF7
:1007700033F81230C01A306000F0C4F8012388F852
:100780000030002389F800302B78154983B1174BCE
:100790001B7853B10B7804AA13440F2203F8082CDA
:1007A0000B78012B08BF8DF8082002A800F058F93B
:1007B00098F80030002B3FF432AF0D4B00220D486B
:1007C0001A7000F0ABF9074602A800F049F90A4B8D
:1007D00080221A61094B4FF4FA721A801FE700BF9A
:1007E00089000020008EA454460D000895000020CA
:1007F0008800002098000020000C01408A000020A2
:100800006101000863010008650100089D010008FE
:10081000054A0649D368095C23F0780343EAC1031B
:100820009BB2D360704700BF000C01405E0D000812
:10083000294A138801339BB2138013889BB27D2B06
:1008400007D900231380254A1378B3FA83F35B0991
:100850001370234B23499A68234892B202F48073A1
:100860009BB25BB912F4806F1ED012F4006F1DD0E2
:1008700012F4005F1CD0D2041CD503E001230278DF
:100880009A4219D000220A700370184A13889BB24A
:1008900003B31388013B9BB2138013889BB2CBB97F
:1008A0000F4B80225A6170470423E8E70323E6E7F1
:1008B0000223E4E70523E2E709780A4A0A29E4D893
:1008C00011780A2904BF0A490B7013780133DBB28F
:1008D0001370DAE7704700BF8C00002095000020FD
:1008E000000C014096000020970000208A000020A4
:1008F00094000020024B9B889B06FBD5704700BFED
:100900000028004038B504460E4D01232B60FFF748
:10091000F1FF0D4A93889BB243F010039380230CA0
:10092000A4B213839483938823F010031B041B0C3D
:100930009380FFF7DFFF00232B60BDE83840FFF70F
:10094000D9BF00BF20000E4200280040034A938B0D
:10095000108B9BB243EA0040704700BF0028004064
:10096000094A08B59388DB070CD5938823F0010367
:100970001B041B0C9380054B01221A70FFF7E6FF46
:10098000034B186008BD00BF00280040880000200D
:1009900098000020CA78F0B5D40648BF8C780D883E
:1009A00002F00F0348BF234315F0FF0F1DD001686D
:1009B00000240126A64006EA0507B74211D14FEAF6
:1009C000840E0F2606FA0EF621EA0601282A03FAFB
:1009D0000EF641EA060101D1476102E0482A08BF4C
:1009E00007610134082CE4D10160FF2D1FD9416853
:1009F000002404F108070126BE4006EA0507B742B5
:100A000011D14FEA840E0F2606FA0EF621EA0601EE
:100A1000282A03FA0EF641EA060101D1476102E0F5
:100A2000482A08BF07610134082CE2D14160F0BDBB
:100A3000094BFC225A6120B1084A013832F81020D3
:100A40001A6100BF00BF00BF00BF00BF00BF00BFF2
:100A500000BFFC225A61704700080140520D000897
:100A60001A4BFC2210B504465A6100BF00BF00BFFC
:100A700000BF00BF00BF00BF00BF0078FFF7C8FE87
:100A80000120FFF7D5FF6078FFF7C2FE0220FFF7D5
:100A9000CFFFA078FFF7BCFE0320FFF7C9FFE07887
:100AA000FFF7B6FE0420FFF7C3FF2079FFF7B0FE83
:100AB0000520FFF7BDFF6079FFF7AAFE0620FFF7CC
:100AC000B7FFBDE810400020FFF7A2BE00080140BC
:100AD00008B50C4B1A680AB90B4A1A601A68C31C8D
:100AE00023F00303094913448B4206D900F010F8A0
:100AF0000C2303604FF0FF3008BD024910460B6025
:100B000008BD00BF90000020B8000020004C00206D
:100B1000014B1868704700BF7400002038B5074BC0
:100B200005461C68E36B1BB9242000F09BF8E063CA
:100B30002846E16BBDE8384000F002B874000020A0
:100B40000068444AF0B590FBF2F302FB1302002A5E
:100B5000BCBF02F5A83202F5C0724FF4616492FB8B
:100B6000F4F004FB10224FF03C04886092FBF4F098
:100B700004FB1022A3F52C53B4BF0A3B093B486089
:100B80000A60D81C072290FBF2F2C2EBC202821A62
:100B900048BF07328A6148F6AC62002BBCBF03F540
:100BA0000E3303F2B12393FBF2F240F2B556B4BF19
:100BB0004FF0FF370027284C042A08BF032204FB0C
:100BC000023393FBF6F640F26D15244C6FF4B670C9
:100BD00004FB063393FBF5F5042D08BF032500FB4A
:100BE00005334FF4C8707843642400F5FA6004FBC1
:100BF000020000EB8600284425B92EB9B2FA82F231
:100C0000520902E0002200E0012203F13B0402F558
:100C1000B6751444A542BFBF6FF4B675AD1A013066
:100C20006419A0F26C70CC61486102220C4850F843
:100C30002200834206DB01320C2AA3EB0003A8BF8B
:100C40000022F3E70133CB6000230A610B62084600
:100C5000F0BD00BF805101005471FFFF4BFAFFFF50
:100C6000A00D0008024B0146186800F003B800BF51
:100C70007400002070B5CC1C24F0030408340C2C44
:100C800038BF0C24002C064603DA0C233360002006
:100C900070BD8C42F9D3204A136810461946A1B1A1
:100CA0000A68121B0ED40B2A03D90A608B188C50C9
:100CB0001FE08B420BBF5A684A6802605A6018BF37
:100CC0000B4616E00B464968E9E7144D2B681BB943
:100CD000304600F025F828603046214600F020F824
:100CE000421C0346D1D0C51C25F0030585420AD11C
:100CF0001C6003F10B001A1D20F00700821A0AD0B5
:100D00005142995070BD3046E91A00F009F801309F
:100D1000BBD02B46ECE770BDB0000020AC0000203B
:100D200038B5064C0023054608462360FFF7D0FE81
:100D3000431C02D1236803B12B6038BDB4000020EE
:100D40000F0E0E0E0E0F0000100E58023C000A008F
:100D5000010004000800100020004000800000088E
:100D6000040C020A060E0109050D030B070F4300D0
:100D70001F0000001C0000001F0000001E000000FB
:100D80001F0000001E0000001F0000001F000000E8
:100D90001E0000001F0000001E0000001F000000D9
:100DA0001F0000001D0000001F0000001E000000CA
:100DB0001F0000001E0000001F0000001F000000B8
:100DC0001E0000001F0000001E0000001F000000A9
:100DD00000000000000000000102030406070809EB
:100DE00000A24A0400000000000000000000000013
:100DF00000000000000000000000000000000000F3
:100E0000000000006E0D000800000000000000005F
:100E100000000000000000000000000000000000D2
:100E200000000000000000000000000000000000C2
:100E300000000000000000000000000000000000B2
:080E4000000000001400002076
:040000050800019D51
:00000001FF
