:020000040800F2
:10000000005000205B01000859010008430100086E
:10001000410100082B010008150100080000000044
:1000200000000000000000000000000013010008B4
:1000300011010008000000000F010008D1080008AD
:100040000D0100080D0100080D010008E508000879
:100050000D0100080D0100080D0100080D01000848
:100060000D0100080D0100080D0100080D01000838
:100070000D0100080D0100080D0100080D01000828
:100080000D0100080D0100080D0100080D01000818
:100090000D0100080D0100080D010008A10A00086B
:1000A0000D0100080D0100080D0100080D010008F8
:1000B0000D0100080D0100080D0100080D010008E8
:1000C0000D0100080D0100080D0100080D010008D8
:1000D0000D0100080D0100080D0100080D010008C8
:1000E000350A00080D0100080D010008000000009D
:1000F0000000000000000000000000000000000000
:1001000000000000000000005FF808F1FEE7FEE7D5
:10011000FEE7FEE71EF0040F0CBFEFF30880EFF3DD
:1001200009807146DFF8782710471EF0040F0CBFD6
:10013000EFF30880EFF309807146DFF86827104776
:10014000FEE71EF0040F0CBFEFF30880EFF3098009
:100150007146DFF854271047FEE7DFF850070047E5
:10016000FEE7FEE70C4A10B5136B9B0712D5D36A66
:10017000002B0FDA4BF6AB6183691C888C4209D1E6
:1001800001680339012905D8023383614FF0004328
:10019000D36210BDFEE700BF00ED00E05F4C80B50C
:1001A000236888B043F00103236062685C4B13400E
:1001B0006360236823F0847323F48033236023680F
:1001C00023F480232360636823F4FE0363604FF409
:1001D0001F03A360002301930293236843F4803339
:1001E0002360236803F400330293019B01330193DE
:1001F000029B1BB9019BB3F5A06FF2D1236813F4E6
:10020000003318BF01230293029B012B06D0454BFC
:100210004FF000629A60444A444B32E0444B1A6803
:1002200042F010021A601A6822F003021A601A687B
:1002300042F002021A606368636063686360636827
:1002400043F480636360636823F47C1363606368D2
:1002500043F4E8136360236843F0807323602268EB
:100260002E4B9601FBD55A6822F003025A605A6859
:1002700042F002025A60636803F00C03082BFAD1C3
:10028000C5E72C498B4204D252F8041F43F8041BE3
:10029000F7E7294B294A934203D2002243F8042B63
:1002A000F8E762681D4902F00C02042A244B01D0D1
:1002B000082A01D0234A0EE04A684868C2F3834204
:1002C000C50302F1020202D54968880301D51E491F
:1002D00000E01C494A431A6062681C49C2F30312D9
:1002E000895C1A681A4DCA401A601A4B00261F46CC
:1002F000ED1AAD10AE4204DA57F8263098470136B1
:10030000F8E7154B154D1F46ED1AAD100026AE420D
:1003100026DA57F8263098470136F8E700100240F1
:100320000000FFF800ED00E0580F0008000000207A
:10033000002002407800002078000020B400002057
:100340001000002000127A0000093D00000000208B
:10035000B0080008B0080008B0080008B00800089D
:10036000C04B06AE18689B880490BF48ADF81430A7
:1003700000F090FCA369BD4A43F00C03A361A3699C
:10038000012543F00103A3615368516823F07063B2
:1003900021F0706143F0007351604FF0100853601A
:1003A0003146FC230746B248ADF818308DF81A5094
:1003B0008DF81B8000F0E2FA4FF48073ADF818302E
:1003C000AC48282331468DF81B3000F0D7FA4FF4A3
:1003D0007053ADF81830A748482331468DF81B30CC
:1003E00000F0CCFAFA23A3483146ADF818308DF866
:1003F0001B8000F0C3FAA04AE369914643F0C05362
:10040000E3619E4B15601D6000231A0403D4626AE9
:1004100001339107F9D5236A43F40073236200F096
:100420007DFA974B01221A60964A938823F00803BD
:100430001B041B0C93809388924D1B07FBD500F087
:100440006DFAAB884FF000089BB243F01003AB800D
:1004500049F63463A5F80880AB81AB884FF0280AD1
:1004600023F010031B041B0CAB8000F057FA8648E6
:1004700000F05CFA00F052FAAB8823F001031B0491
:100480001B0CAB802B8823F006031B041B0C2B805A
:100490002B889BB243F001032B8000F03FFAC9F890
:1004A0000080DFF8F4914D4655F8060B0690304673
:1004B00000F044FB95E803006C4B01251A6922F01B
:1004C0000F021A611A6942F001021A611A6922F4D4
:1004D00070621A611A6942F480721A611A6922F410
:1004E00070421A611A6942F480521A615A6922F004
:1004F0000F025A615A6942F001025A615A6922F0A8
:10050000F0025A615A6942F010025A6186E803000B
:10051000304600F0D7FA4FF48073304606930C2330
:100520008DF81D3000F0CEFAD9F80E00DFF84491B6
:10053000039003A800F002FB03A88DF80CA000F0C4
:10054000FDFAE369314643F00303E36148481823A9
:100550008DF81B308DF81A50ADF8185000F00EFAD7
:1005600031464846ADF8185000F008FA4FF0804385
:100570001A88464C22F45C721204120C1A80602114
:100580004FF4E16050229A8518859D822180658014
:10059000A4F80880A4F806A01A8C22F00102120424
:1005A000120C1A841A8CB3F804E01E8B22F002029B
:1005B00026F0730636041204360C120C0E432A433E
:1005C0001FFA8EFEA3F804E01E83A3F834A01A8459
:1005D0001A8B22F008021204120C42F008021A834D
:1005E0001A8892B242F080021A801A8892B22A4384
:1005F0001A8003F580631A8822F45C721204120CCC
:100600001A8043229A85224A18851E209D821180D5
:100610005580D080A2F808801A8C22F480721204CF
:10062000120C1A841A8C9E88998B22F4007221F085
:10063000730109041204090C120C41F0600142F428
:100640008072B6B29E80998398871A849A8B1149DA
:1006500022F008021204120C42F008029A831A884F
:100660001CE000BFB80E0008800000200000014020
:1006700000080140000C014020000E42800442426C
:100680003C04424200280040008EA4549600002002
:1006900084000020FFDC6D00BE0E0008F02092B246
:1006A00042F080021A801A8892B22A431A80714A54
:1006B0005160714981F823000721C2F80880116058
:1006C000C9F814501A886D4D22F001021204120C60
:1006D0001A8004A800F080FA2B6803BBFEE7684884
:1006E00000F038F9002388F8003099F800306549A7
:1006F000002B40F0AD8033788BB1634B00225F4814
:100700001A7000F0C7FA074604A800F065FA2B68D3
:10071000802213F0010F5D4B14BF1A615A61B96852
:100720000A2391FBF3F28DF8102003FB12128DF8CF
:1007300011207968DFF8648191FBF3F28DF81220C3
:1007400003FB12128DF813203968DFF8389191FB02
:10075000F3F203FB12138DF8153098F800308DF882
:100760001420013B484E042BBCD801A252F823F0C0
:10077000DF060008130800082D080008AB07000872
:100780008507000899F800300133DBB289F80030A2
:1007900099F80030052B05D93A4B002204A81A70AD
:1007A00000F01AFA99F800309CE7E38850200A33E9
:1007B0009BB2B3FBF0F200FB123080B2E0804FF04E
:1007C00080431A8C22F001021204120C1A841A8C33
:1007D000B3F804C0B3F818E022F0020A2EF0730157
:1007E0000904B4F800E0090C628841EA0E0E218980
:1007F0004FEA0A4A4FEA1A4A0A434AEA02021FFA31
:100800008CFC92B2A3F804C0A3F818E098861A846E
:1008100068E71F4A908B83B2108B99F800101D4A2D
:1008200043EA004032F8112010440BE0184B988B3B
:100830001B8B80B240EA034099F80020154B33F837
:100840001230C01A286000F085F80123337049E7A0
:10085000114B1B7853B10B7808AA13440F2203F8ED
:10086000102C0B78012B08BF8DF8102004A800F085
:10087000B3F940E710E000E000ED00E08000002068
:10088000C5938C557A00002078000020000C0140B0
:1008900000280040D00E00089400002079000020BD
:1008A0006101000863010008650100089D0100085E
:1008B000054A0649D368095C23F0780343EAC1037B
:1008C0009BB2D360704700BF000C0140E80E0008E7
:1008D000034A1378B3FA83F35B091370704700BFC0
:1008E000940000200A4A9388DB070FD593880121E2
:1008F00023F001031B041B0C9380064B1970938B90
:10090000128B9BB243EA0243034A1360704700BF55
:10091000002800407800002080000020024B9B88C7
:100920009B06FBD5704700BF00280040084A93880B
:100930009BB243F010039380030C80B21383908327
:10094000938823F010031B041B0C9380704700BF97
:100950000028004038B50546074C01232360FFF707
:10096000DDFF2846FFF7E2FFFFF7D8FF00232360F3
:10097000BDE83840FFF7D2BF20000E42CA78F0B57C
:10098000D40648BF8C780D8802F00F0348BF23437C
:1009900015F0FF0F1DD0016800240126A64006EACD
:1009A0000507B74211D14FEA840E0F2606FA0EF65C
:1009B00021EA0601282A03FA0EF641EA060101D1CE
:1009C000476102E0482A08BF07610134082CE4D1DE
:1009D0000160FF2D1FD94168002404F1080701269A
:1009E000BE4006EA0507B74211D14FEA840E0F2632
:1009F00006FA0EF621EA0601282A03FA0EF641EA63
:100A0000060101D1476102E0482A08BF07610134AD
:100A1000082CE2D14160F0BD054B1A685B690340C8
:100A200004D0104214BF01200020704718467047C0
:100A30000004014008B54FF48060FFF7EDFF30B1CE
:100A4000154B04221A70154B4FF480625A614FF413
:100A50000060FFF7E1FF30B10F4B03221A700F4B1C
:100A60004FF400625A614FF48050FFF7D5FF30B168
:100A7000094B05221A70094B4FF480525A614FF40A
:100A80000050FFF7C9FF30B1034B02221A70034B2D
:100A90004FF400525A6108BD790000200004014063
:100AA00008B54FF48070FFF7B7FF30B1034B012258
:100AB0001A70034B4FF480725A6108BD7900002010
:100AC00000040140827970B501680379002A29D0B9
:100AD000CE43194A03F18043156803F5823335404C
:100AE00015605468344054601C68214319600368E1
:100AF0009468DD432C409460D1682940D1604179ED
:100B0000102909BF916801F180421943916015BF16
:100B100002F58232D16811680B4316BF0B43D360D4
:100B2000136070BD03F1804303F582331A6822EA33
:100B30000101196070BD00BF00040140C27810B50A
:100B400003780AB3164A03F16043D4684278E44359
:100B5000C4F30224C4F1040102FA01F10F22E240BD
:100B6000847803F5614322400A431201D2B283F82C
:100B7000002303780122590903F01F0302FA03F34B
:100B8000084A42F8213010BD5A09012103F01F0321
:100B9000994002F12003034A42F8231010BD00BF20
:100BA00000ED00E000E100E0094BFC225A6120B1B9
:100BB000084A013832F810201A6100BF00BF00BF98
:100BC00000BF00BF00BF00BF00BFFC225A617047DA
:100BD00000080140DC0E00081A4BFC2210B5044648
:100BE0005A6100BF00BF00BF00BF00BF00BF00BF11
:100BF00000BF0078FFF75CFE0120FFF7D5FF6078AB
:100C0000FFF756FE0220FFF7CFFFA078FFF750FE58
:100C10000320FFF7C9FFE078FFF74AFE0420FFF743
:100C2000C3FF2079FFF744FE0520FFF7BDFF607981
:100C3000FFF73EFE0620FFF7B7FFBDE8104000209B
:100C4000FFF736BE0008014008B50C4B1A680AB918
:100C50000B4A1A601A68C31C23F0030309491344A2
:100C60008B4206D900F010F80C2303604FF0FF30E0
:100C700008BD024910460B6008BD00BF7C00002083
:100C8000B4000020004C0020014B1868704700BFE2
:100C90007400002038B5074B05461C68E36B1BB990
:100CA000242000F09BF8E0632846E16BBDE8384063
:100CB00000F002B8740000200068444AF0B590FBD0
:100CC000F2F302FB1302002ABCBF02F5A83202F5C0
:100CD000C0724FF4616492FBF4F004FB10224FF0F9
:100CE0003C04886092FBF4F004FB1022A3F52C5323
:100CF000B4BF0A3B093B48600A60D81C072290FB3E
:100D0000F2F2C2EBC202821A48BF07328A6148F689
:100D1000AC62002BBCBF03F50E3303F2B12393FB8F
:100D2000F2F240F2B556B4BF4FF0FF370027284C1F
:100D3000042A08BF032204FB023393FBF6F640F2B9
:100D40006D15244C6FF4B67004FB063393FBF5F578
:100D5000042D08BF032500FB05334FF4C87078430A
:100D6000642400F5FA6004FB020000EB86002844CE
:100D700025B92EB9B2FA82F2520902E0002200E04F
:100D8000012203F13B0402F5B6751444A542BFBF2E
:100D90006FF4B675AD1A01306419A0F26C70CC61B5
:100DA000486102220C4850F82200834206DB0132DF
:100DB0000C2AA3EB0003A8BF0022F3E70133CB60AA
:100DC00000230A610B620846F0BD00BF805101009C
:100DD0005471FFFF4BFAFFFF2C0F0008024B014636
:100DE000186800F003B800BF7400002070B5CC1C78
:100DF00024F0030408340C2C38BF0C24002C0646C5
:100E000003DA0C233360002070BD8C42F9D3204AF2
:100E1000136810461946A1B10A68121B0ED40B2A9A
:100E200003D90A608B188C501FE08B420BBF5A68A5
:100E30004A6802605A6018BF0B4616E00B464968C4
:100E4000E9E7144D2B681BB9304600F025F82860FF
:100E50003046214600F020F8421C0346D1D0C51C84
:100E600025F0030585420AD11C6003F10B001A1D11
:100E700020F00700821A0AD05142995070BD3046C6
:100E8000E91A00F009F80130BBD02B46ECE770BD41
:100E9000AC000020A800002038B5064C0023054611
:100EA00008462360FFF7D0FE431C02D1236803B13C
:100EB0002B6038BDB00000200E0E0E0E0E0E03018A
:100EC00000010000003C000000080100170F0F01A6
:100ED0000000100E58023C000A0001000400080047
:100EE00010002000400080000008040C020A060EDA
:100EF0000109050D030B070F430000001F00000050
:100F00001C0000001F0000001E0000001F00000069
:100F10001E0000001F0000001F0000001E00000057
:100F20001F0000001E0000001F0000001F00000046
:100F30001D0000001F0000001E0000001F00000038
:100F40001E0000001F0000001F0000001E00000027
:0C0F50001F0000001E0000001F00000039
:100F5C00000000000000000001020304060708095D
:100F6C0000A24A0400000000000000000000000085
:100F7C000000000000000000000000000000000065
:100F8C0000000000F80E0008000000000000000047
:100F9C000000000000000000000000000000000045
:100FAC000000000000000000000000000000000035
:100FBC000000000000000000000000000000000025
:080FCC000000000014000020E9
:040000050800019D51
:00000001FF
