:020000040800F2
:10000000005000205B01000859010008430100086E
:10001000410100082B010008150100080000000044
:1000200000000000000000000000000013010008B4
:1000300011010008000000000F010008610800081D
:100040000D0100080D0100080D0100082509000838
:100050000D0100080D0100080D0100080D01000848
:100060000D0100080D0100080D0100080D01000838
:100070000D0100080D0100080D0100080D01000828
:100080000D0100080D0100080D0100080D01000818
:100090000D0100080D0100080D0100080D01000808
:1000A0000D0100080D0100080D0100080D010008F8
:1000B0000D0100080D0100080D0100080D010008E8
:1000C0000D0100080D0100080D0100080D010008D8
:1000D0000D0100080D0100080D0100080D010008C8
:1000E0000D0100080D0100080D01000800000000CE
:1000F0000000000000000000000000000000000000
:1001000000000000000000005FF808F1FEE7FEE7D5
:10011000FEE7FEE71EF0040F0CBFEFF30880EFF3DD
:1001200009807146DFF8082710471EF0040F0CBF46
:10013000EFF30880EFF309807146DFF8F8261047E7
:10014000FEE71EF0040F0CBFEFF30880EFF3098009
:100150007146DFF8E4261047FEE7DFF8E0060047C7
:10016000FEE7FEE70C4A10B5136B9B0712D5D36A66
:10017000002B0FDA4BF6AB6183691C888C4209D1E6
:1001800001680339012905D8023383614FF0004328
:10019000D36210BDFEE700BF00ED00E0BFB55F4CCD
:1001A000236843F00103236062685D4B1340636082
:1001B000236823F0847323F480332360236823F4BB
:1001C00080232360636823F4FE0363604FF41F03FE
:1001D000A360002301930293236843F480332360D8
:1001E000236803F400330293019B01330193029BC4
:1001F0001BB9019BB3F5A06FF2D1236813F4003350
:1002000018BF01230293029B012B06D0454B4FF0F0
:1002100000629A60444A454B32E0454B1A6842F00E
:1002200010021A601A6822F003021A601A6842F07B
:1002300002021A606368636063686360636843F422
:1002400080636360636823F47C136360636843F4D2
:10025000E8136360236843F08073236022682F4BA8
:100260009601FBD55A6822F003025A605A6842F0A0
:1002700002025A60636803F00C03082BFAD1C5E749
:100280002C498B4204D252F8041F43F8041BF7E7B1
:10029000294B2A4A934203D2002243F8042BF8E761
:1002A00062681E4902F00C02042A254B01D0082A7C
:1002B00001D0244A0EE04A684868C2F38342C5036D
:1002C00002F1020202D54968880301D51E4900E007
:1002D0001C494A431A6062681C49C2F30312895CD4
:1002E0001A681B4DCA401A601A4B00261F46ED1AA9
:1002F000AD10AE4204DA57F8263098470136F8E7D9
:10030000154B164D1F46ED1AAD100026AE4227DAEA
:1003100057F8263098470136F8E700BF0010024032
:100320000000FFF800ED00E0F40D000800000020E0
:10033000002002407800002078000020BC0000204F
:100340001000002000127A0000093D00000000208B
:10035000400800084008000840080008400800085D
:10036000B44B012518689B880490B348ADF814304D
:1003700000F0E8FBA369B14A43F00C03A361A36951
:10038000102743F00103A3615368516823F07063A1
:1003900021F0706143F00073516006465360A84835
:1003A000FC2303A9ADF80C308DF80E508DF80F70BA
:1003B00000F004FB4FF48073ADF80C30A148282303
:1003C00003A98DF80F3000F0F9FA4FF47053ADF82F
:1003D0000C309C48482303A98DF80F3000F0EEFA4A
:1003E000FA2303A99748ADF80C308DF80F7000F090
:1003F000E5FA9549E3698846944A43F0C053E361BE
:1004000000230D601370137015701A0403D4226A50
:1004100001339107F9D5236A43F48073236200F016
:100420009DFA8B4B01221A608A4A938823F00803B5
:100430001B041B0C93809388864D1B07FBD500F093
:100440008DFAAB8800279BB243F01003AB804FF4CA
:1004500000432F81AB81AB88DFF8E89123F01003D4
:100460001B041B0CAB8000F079FA7B4800F07EFA8D
:1004700000F074FAAB884FF0280A23F001031B0444
:100480001B0CAB802B8823F006031B041B0C2B805A
:100490002B889BB243F001032B8000F05FFAC8F871
:1004A0000070DFF8CC810125D8F80C306B4ADB43B3
:1004B000C3F30223C3F1040305FA03F31B01DBB208
:1004C00082F8033308231360E3695D4843F00303B4
:1004D000E36103A918238DF80F308DF80E50ADF8A5
:1004E0000C5000F06BFA484603A9ADF80C5000F030
:1004F00065FA4FF080431A88594C22F45C7212045A
:10050000120C1A8060214FF4E16050229A85188500
:100510009D82218065802781A4F806A01A8C22F094
:1005200001021204120C1A841A8CB3F804C0B3F836
:1005300018E022F002022EF0730E4FEA0E4E120463
:100540004FEA1E4E120C4EEA010E2A431FFA8CFC93
:10055000A3F804C0A3F818E0A3F834A01A841A8BF7
:100560004FF01E0E22F008021204120C42F0080294
:100570001A831A8892B242F080021A801A8892B2C4
:100580002A431A8003F580631A8822F45C721204ED
:10059000120C1A8043229A85324A18859D82118056
:1005A0005580A2F806E017811A8C22F4807212049A
:1005B000120C1A841A8C9888998B22F4007221F0FC
:1005C000730109041204090C120C80B241F060019D
:1005D00042F4807298809983A3F83CE01A849A8B45
:1005E000214922F008021204120C42F008029A83F8
:1005F0001A8804A892B242F080021A801A8892B235
:100600002A431A80194A5160F02188F823100721E3
:1006100097601160C9F814501A88074D22F0010242
:100620001204120C1A8000F02FFA2B68002B40D114
:10063000FEE700BF680D00089C000020000001409C
:1006400000080140000C014020000E422010024032
:100650003C04424200280040008EA45400E100E027
:10066000A0000020860000203F19010010E000E0FB
:1006700000ED00E0644800F08DF9002388F80030B8
:1006800099F800306149002B40F0AC803B7883B191
:100690005F4B00225F481A7000F054FA064604A827
:1006A00000F0F2F95C4B80221A615C4B4FF4FA7255
:1006B0001A80B1680A2391FBF3F28DF8102003FB36
:1006C00012128DF811207168DFF8608191FBF3F24E
:1006D0008DF8122003FB12128DF813203168DFF819
:1006E0002C9191FBF3F203FB12138DF8153098F85F
:1006F00000308DF81420013B454F042BBDD801A2DA
:1007000052F823F075060008A7070008C107000883
:100710003F0700081907000899F800300133DBB2E1
:1007200089F8003099F80030052B05D9374B0022A5
:1007300004A81A7000F0A8F999F800309DE7E38842
:1007400050200A339BB2B3FBF0F200FB123080B2B0
:10075000E0804FF080431A8C22F001021204120C48
:100760001A841A8CB3F804C0B3F818E022F0020A15
:100770002EF073010904B4F800E0090C628841EA24
:100780000E0E21894FEA0A4A4FEA1A4A0A434AEAF8
:1007900002021FFA8CFC92B2A3F804C0A3F818E07E
:1007A00098861A8469E71E4A908B83B2108B99F859
:1007B00000101C4A43EA004032F8112010440BE0BC
:1007C000174B988B1B8B80B240EA034099F80020AE
:1007D000144B33F81230C01A286000F0DBF8012304
:1007E0003B704AE7104B1B7853B10B7806AA1344B1
:1007F0000F2203F8082C0B78012B08BF8DF810206E
:1008000004A800F041F941E7C5938C557900002018
:10081000780000209C000020000C01407A0000209D
:10082000002800406E0D0008960000208400002083
:100830006101000863010008650100089D010008CE
:10084000054A0649D368095C23F0780343EAC103EB
:100850009BB2D360704700BF000C0140860D0008BA
:10086000294A138801339BB2138013889BB27D2BD6
:1008700007D900231380254A1378B3FA83F35B0961
:100880001370234B23499A68234892B202F4807371
:100890009BB25BB912F4806F1ED012F4006F1DD0B2
:1008A00012F4005F1CD0D2041CD503E001230278AF
:1008B0009A4219D000220A700370184A13889BB21A
:1008C00003B31388013B9BB2138013889BB2CBB94F
:1008D0000F4B80225A6170470423E8E70323E6E7C1
:1008E0000223E4E70523E2E709780A4A0A29E4D863
:1008F00011780A2904BF0A490B7013780133DBB25F
:100900001370DAE7704700BF7C00002096000020DB
:10091000000C014097000020980000207A00002081
:10092000840000200A4A9388DB070FD593880121B1
:1009300023F001031B041B0C9380064B1970938B4F
:10094000128B9BB243EA0243034A1360704700BF15
:1009500000280040780000209C000020024B9B886B
:100960009B06FBD5704700BF00280040084A9388CB
:100970009BB243F010039380030C80B213839083E7
:10098000938823F010031B041B0C9380704700BF57
:100990000028004038B50546074C01232360FFF7C7
:1009A000DDFF2846FFF7E2FFFFF7D8FF00232360B3
:1009B000BDE83840FFF7D2BF20000E42CA78F0B53C
:1009C000D40648BF8C780D8802F00F0348BF23433C
:1009D00015F0FF0F1DD0016800240126A64006EA8D
:1009E0000507B74211D14FEA840E0F2606FA0EF61C
:1009F00021EA0601282A03FA0EF641EA060101D18E
:100A0000476102E0482A08BF07610134082CE4D19D
:100A10000160FF2D1FD94168002404F10807012659
:100A2000BE4006EA0507B74211D14FEA840E0F26F1
:100A300006FA0EF621EA0601282A03FA0EF641EA22
:100A4000060101D1476102E0482A08BF076101346D
:100A5000082CE2D14160F0BD094BFC225A6120B163
:100A6000084A013832F810201A6100BF00BF00BFE9
:100A700000BF00BF00BF00BF00BFFC225A6170472B
:100A8000000801407A0D00081A4BFC2210B50446FC
:100A90005A6100BF00BF00BF00BF00BF00BF00BF62
:100AA00000BF0078FFF7CCFE0120FFF7D5FF60788C
:100AB000FFF7C6FE0220FFF7CFFFA078FFF7C0FECA
:100AC0000320FFF7C9FFE078FFF7BAFE0420FFF725
:100AD000C3FF2079FFF7B4FE0520FFF7BDFF607963
:100AE000FFF7AEFE0620FFF7B7FFBDE8104000207D
:100AF000FFF7A6BE0008014008B50C4B1A680AB9FA
:100B00000B4A1A601A68C31C23F0030309491344F3
:100B10008B4206D900F010F80C2303604FF0FF3031
:100B200008BD024910460B6008BD00BF80000020D0
:100B3000BC000020004C0020014B1868704700BF2B
:100B40007400002038B5074B05461C68E36B1BB9E1
:100B5000242000F09BF8E0632846E16BBDE83840B4
:100B600000F002B8740000200068444AF0B590FB21
:100B7000F2F302FB1302002ABCBF02F5A83202F511
:100B8000C0724FF4616492FBF4F004FB10224FF04A
:100B90003C04886092FBF4F004FB1022A3F52C5374
:100BA000B4BF0A3B093B48600A60D81C072290FB8F
:100BB000F2F2C2EBC202821A48BF07328A6148F6DB
:100BC000AC62002BBCBF03F50E3303F2B12393FBE1
:100BD000F2F240F2B556B4BF4FF0FF370027284C71
:100BE000042A08BF032204FB023393FBF6F640F20B
:100BF0006D15244C6FF4B67004FB063393FBF5F5CA
:100C0000042D08BF032500FB05334FF4C87078435B
:100C1000642400F5FA6004FB020000EB860028441F
:100C200025B92EB9B2FA82F2520902E0002200E0A0
:100C3000012203F13B0402F5B6751444A542BFBF7F
:100C40006FF4B675AD1A01306419A0F26C70CC6106
:100C5000486102220C4850F82200834206DB013230
:100C60000C2AA3EB0003A8BF0022F3E70133CB60FB
:100C700000230A610B620846F0BD00BF80510100ED
:100C80005471FFFF4BFAFFFFC80D0008024B0146ED
:100C9000186800F003B800BF7400002070B5CC1CC9
:100CA00024F0030408340C2C38BF0C24002C064616
:100CB00003DA0C233360002070BD8C42F9D3204A44
:100CC000136810461946A1B10A68121B0ED40B2AEC
:100CD00003D90A608B188C501FE08B420BBF5A68F7
:100CE0004A6802605A6018BF0B4616E00B46496816
:100CF000E9E7144D2B681BB9304600F025F8286051
:100D00003046214600F020F8421C0346D1D0C51CD5
:100D100025F0030585420AD11C6003F10B001A1D62
:100D200020F00700821A0AD05142995070BD304617
:100D3000E91A00F009F80130BBD02B46ECE770BD92
:100D4000B4000020B000002038B5064C0023054652
:100D500008462360FFF7D0FE431C02D1236803B18D
:100D60002B6038BDB80000200E0E0E0E0E0E0000D7
:100D7000100E58023C000A00010004000800100098
:100D80002000400080000008040C020A060E010941
:100D9000050D030B070F43001F0000001C0000009F
:100DA0001F0000001E0000001F0000001E000000C9
:100DB0001F0000001F0000001E0000001F000000B8
:100DC0001E0000001F0000001F0000001D000000AA
:100DD0001F0000001E0000001F0000001E00000099
:100DE0001F0000001F0000001E0000001F00000088
:080DF0001E0000001F000000BE
:100DF80000000000000000000102030406070809C3
:100E080000A24A04000000000000000000000000EA
:100E180000000000000000000000000000000000CA
:100E280000000000960D000800000000000000000F
:100E380000000000000000000000000000000000AA
:100E4800000000000000000000000000000000009A
:100E5800000000000000000000000000000000008A
:080E680000000000140000204E
:040000050800019D51
:00000001FF
