:020000040800F2
:10000000005000205B01000859010008430100086E
:10001000410100082B010008150100080000000044
:1000200000000000000000000000000013010008B4
:1000300011010008000000000F010008650C000815
:100040000D0100080D0100080D010008B90D0008A0
:100050000D0100080D0100080D0100080D01000848
:100060000D0100080D0100080D0100080D01000838
:100070000D0100080D0100080D0100080D01000828
:100080000D0100080D0100080D0100080D01000818
:100090000D0100080D0100080D0100080D01000808
:1000A0000D0100080D0100080D0100080D010008F8
:1000B0000D0100080D0100080D0100080D010008E8
:1000C0000D0100080D0100080D0100080D010008D8
:1000D0000D0100082D0C00080D0100080D0100089D
:1000E0000D0100080D0100080D01000800000000CE
:1000F0000000000000000000000000000000000000
:1001000000000000000000005FF808F1FEE7FEE7D5
:10011000FEE7FEE71EF0040F0CBFEFF30880EFF3DD
:1001200009807146DFF8D42A10471EF0040F0CBF77
:10013000EFF30880EFF309807146DFF8C42A104717
:10014000FEE71EF0040F0CBFEFF30880EFF3098009
:100150007146DFF8B02A1047FEE7DFF8AC0A004727
:10016000FEE7FEE70C4A10B5136B9B0712D5D36A66
:10017000002B0FDA4BF6AB6183691C888C4209D1E6
:1001800001680339012905D8023383614FF0004328
:10019000D36210BDFEE700BF00ED00E0BFB55F4CCD
:1001A000236843F00103236062685D4B1340636082
:1001B000236823F0847323F480332360236823F4BB
:1001C00080232360636823F4FE0363604FF41F03FE
:1001D000A360002301930293236843F480332360D8
:1001E000236803F400330293019B01330193029BC4
:1001F0001BB9019BB3F5A06FF2D1236813F4003350
:1002000018BF01230293029B012B06D0454B4FF0F0
:1002100000629A60444A454B32E0454B1A6842F00E
:1002200010021A601A6822F003021A601A6842F07B
:1002300002021A606368636063686360636843F422
:1002400080636360636823F47C136360636843F4D2
:10025000E8136360236843F08073236022682F4BA8
:100260009501FBD55A6822F003025A605A6842F0A1
:1002700002025A60636803F00C03082BFAD1C5E749
:100280002C498B4204D252F8041F43F8041BF7E7B1
:10029000294B2A4A934203D2002243F8042BF8E761
:1002A00063681E4903F00C03042B254A01D0082B78
:1002B00001D0244B0EE04B684868C3F38343C0036E
:1002C00003F1020302D54968890301D51E4900E004
:1002D0001C494B43136063681C49C3F30313C95C97
:1002E00013681B4DCB4013601A4B00261F46ED1AB6
:1002F000AD10AE4204DA57F8263098470136F8E7D9
:10030000154B164D1F46ED1AAD100026AE4227DAEA
:1003100057F8263098470136F8E700BF0010024032
:100320000000FFF800ED00E0441A00080000002083
:1003300000200240CC000020CC000020A0010020C2
:100340002400002000127A0000093D000000002077
:100350000C0C00080C0C00080C0C00080C0C00081D
:10036000A369C14A43F00C03A361A369102643F0BB
:100370000103A3615368516823F0706321F0706139
:1003800043F000735160012553600DEB0601FC231F
:10039000B648ADF810308DF813608DF8125000F0AB
:1003A00025FD4FF480730DEB0601ADF81030B04819
:1003B00028238DF8133000F019FD4FF470530DEB26
:1003C0000601ADF81030AA4848238DF8133000F02C
:1003D0000DFDFA230DEB0601A548ADF810308DF8A0
:1003E000136000F003FDE369A24A43F0C053A24E3C
:1003F000E361002335601370137015701D0403D47E
:10040000226A01339707F9D5236A43F48073236284
:1004100000F09CFC994B01221A60994A938823F0C2
:1004200008031B041B0C93809388954D1807FBD57C
:1004300000F08CFCAB884FF000089BB243F0100337
:10044000AB804FF40043A5F80880AB81AB884FF038
:10045000010923F010031B041B0CAB8000F076FC99
:10046000AB88182723F001031B041B0CAB802B88DF
:100470004FF0280A23F006031B041B0C2B802B884B
:100480009BB243F001032B8000F060FC7D4BC6F86B
:10049000008018687C4D049004A800F0F5FCE36926
:1004A000724843F00303E36104A98DF812908DF8BC
:1004B0001370ADF8109000F099FC6D4804A9ADF8E8
:1004C000109000F093FC4FF080431A88602122F4D2
:1004D0005C721204120C1A804FF4E16050229A856B
:1004E0001885A3F814902980A5F80880A5F8029033
:1004F000A5F806A01A8C654E22F001021204120C17
:100500001A841A8CB3F804C0B3F818E022F002027F
:100510002EF0730E4FEA0E4E12044FEA1E4E120CCE
:100520001FFA8CFC4EEA010E42EA0902A3F804C04D
:10053000A3F818E0A3F834A01A841A8B22F008025A
:100540001204120C42F008021A831A8892B242F086
:1005500080021A801A8892B242EA09021A8003F5D0
:1005600080631A8822F45C721204120C1A804322EF
:100570009A85474A18851E20A3F814901180D080D0
:10058000A2F80880A2F802901A8C22F48072120459
:10059000120C1A841A8CB3F804E0998B22F40072BE
:1005A00021F0730109041204090C120C1FFA8EFECB
:1005B00041F0600142F48072A3F804E099839887C7
:1005C0001A849A8B294822F008021204120C42F075
:1005D00008029A831A8803A992B242F080021A8014
:1005E0001A8892B242EA09021A80A36943F480434E
:1005F00043F00503A36102238DF80E304FF400731E
:10060000ADF80C308DF80F7000F0F0FB4FF4806304
:10061000ADF80C301548042303A98DF80F3000F015
:10062000E5FB1C4A138A23F470631B041B0C138222
:10063000138A23F440531B041B0C138293899BB22F
:1006400023F4B05323F00C0343F00C039381938AFB
:1006500023F440731B041B0C9382636803F00C03A8
:10066000082B29D118E000BF00000140000801401C
:10067000000C01402010024020000E423C04424287
:100680000028004094180008D40000200010024008
:10069000E40000200038014073687268C3F38343AC
:1006A000D10303F1020302D57268920301D5B94A5E
:1006B00000E0B94A534300E0B74B6268B749C2F360
:1006C0000312885C6268C340C2F302228A5C6268DB
:1006D0006426C2F3C2228A5CB149D34062681924FD
:1006E000C2F381328A5CAF4A6343928912B2002A14
:1006F000B4BF4FF496444FF41644B3FBF4F4B4FB88
:10070000F6F00001010906FB1143A64CA28912B2C2
:10071000002AADBF1A01D90032313232B5BFB1FB68
:10072000F6F2B2FBF6F302F0070203F00F03B4BFD8
:100730001043184380B22081A3899B489BB243F4A5
:100740000053A38100F0F0FA974800F0EDFA9748C3
:1007500000F0EAFA964800F0E7FA964800F0E4FA6A
:10076000954C964800F0E0FA954800F0DDFA2068D4
:10077000049004A800F088FB924AF021136843F02B
:1007800020031360904B914A5A60914A82F82310DB
:1007900000229A6007221A608E4B01225A618E4A0B
:1007A000138823F001031B041B0C1380234653F80A
:1007B000040F8A4C9B88049004A8ADF8143000F014
:1007C000B1FB00F0EFFA2060204600F00DFC074678
:1007D000834E3378002B48D000238DF81030814BA6
:1007E0001B7833B10DF111000F21052200F0A8FC98
:1007F00061E0DFF800824FF46160D8F80030002B30
:10080000B4BF0E220F2293FBF0F08DF8112000F000
:10081000E1FB1FFA80F9D8F800004FF03C0890FB8C
:10082000F8F000F0D7FB90FBF8F303FB18000A2365
:10083000B9FBF3F21FFA80F890B2B0FBF3F103FBBF
:100840001101B8FBF3F003FB12928DF8121081B284
:100850008DF81320B1FBF3F203FB108803FB121297
:100860008DF815808DF8142025E0397A0C23B1FB22
:10087000F3F203FB121313F0FF034FF00A0208BF59
:100880000C23B3FBF2F102FB11338DF810108DF83D
:100890001130796891FBF2F38DF8123002FB1313DB
:1008A0008DF81330396891FBF2F302FB13128DF8C7
:1008B00014308DF81520DFF84091DFF8408199F869
:1008C0000030DFF82CA1013B042B00F2D480DFE8DC
:1008D00003F00397B12D0D00434800F03FFA434A5F
:1008E0001378B3FA83F35B091370C4E03F4B1A78B3
:1008F00052B1337898F80020B3FA83F35B09337070
:1009000083F001031343B4E09AF800300133DBB203
:100910008AF800309AF80030052B04D9344B04A82B
:100920001A7000F0FFFA9AF80030A4E0EB8850202B
:100930000A339BB2B3FBF0F200FB123080B2E880C6
:100940004FF080431A8C22F001021204120C1A8418
:100950001A8CB3F804C0B3F818E022F0020A2EF0A3
:1009600073010904B5F800E0090C6A8841EA0E0E2B
:1009700029894FEA0A4A4FEA1A4A0A434AEA020216
:100980001FFA8CFC92B2A3F804C0A3F818E0988672
:100990001A8470E000093D0000127A001000002067
:1009A0002000002000380140BE180008D8180008B8
:1009B000F21800080C1900089818000826190008F9
:1009C000401900080C38014010E000E03F19010018
:1009D00000ED00E0000C0140000400408401002014
:1009E000D1000020D2000020008EA45480010020FD
:1009F000780100207C0100208C010020CC00002028
:100A0000337873B14CF2E0416A4A136803F5E1634D
:100A10008B42C8BF684B136000F0C4F900F5E16079
:100A200018E000F0BFF99AF80020644B33F8123058
:100A300018441AE0337883B15E4A5F491368A3F51E
:100A4000E1638B42B8BF4CF2E043136000F0AAF9B7
:100A5000A0F5E16000F082F90DE000F0A3F99AF84A
:100A60000020564B33F81230C01A206000F076F99F
:100A7000012388F80030002389F80030504B1A78A1
:100A800092B1504A12785AB11A781B7806A90A44D2
:100A9000012B4FF00F0102F8081C08BF8DF8101051
:100AA00004A800F03FFA02E03378002BF8D198F860
:100AB000003083B1444B002244481A7000F094FA8D
:100AC000074604A800F02EFA414B80221A61414BE0
:100AD0004FF4FA721A804048404900F005FE0028A1
:100AE0005AD010F8021C10F8013C002203EB01134D
:100AF000A3F54C730270DBB201213748405C28B18A
:100B00002A2803D001314240C9B2F6E7934240D1CE
:100B1000334B314E01221A7032483146092200F01F
:100B20001DFBB0BB304806F13401022200F016FB79
:100B300078B32E4806F13401022200F00FFB40B3D7
:100B4000224800F051FA96F909204FF00A0CA2F160
:100B5000300196F90A20303A0CFB0122826096F9A6
:100B60000B20A2F1300196F90C20303A0CFB012247
:100B7000426096F90C2096F90D30303A303B0CFB70
:100B80000233036000F0D0FB0A4B1B68184400F0EE
:100B9000E5F8174B00221A70164E236832689A4205
:100BA000BFF616AE144800F0BFF8084B1B6865335B
:100BB00033600DE67C0100204057FFFFA2180008BB
:100BC00078010020D2000020CC0000208401002009
:100BD000000C0140CE000020F40000207519000830
:100BE000800100205A1900086419000867190008DC
:100BF000D3000020740100206A1900086101000878
:0C0C000063010008650100089D01000868
:100C0C00054A0649D368095C23F0780343EAC1031B
:100C1C009BB2D360704700BF000C0140AE180008B7
:100C2C000A4B1A88920610D59A88094BC2F308020F
:100C3C0019787D2901D90021197019780548425479
:100C4C001A780132D2B21A707047704700380140DE
:100C5C00D3000020F4000020294A138801339BB2F2
:100C6C00138013889BB27D2B07D900231380254A50
:100C7C001378B3FA83F35B091370234B23499A68F7
:100C8C00234892B202F480739BB25BB912F4806F6A
:100C9C001ED012F4006F1DD012F4005F1CD0D204D1
:100CAC001CD503E0012302789A4219D000220A7065
:100CBC000370184A13889BB203B31388013B9BB291
:100CCC00138013889BB2CBB90F4B80225A617047AB
:100CDC000423E8E70323E6E70223E4E70523E2E73E
:100CEC0009780A4A0A29E4D811780A2904BF0A4962
:100CFC000B7013780133DBB21370DAE7704700BF67
:100D0C007A010020D2000020000C01408D0100204F
:100D1C00D0000020CE0000208C01002000218BB2DE
:100D2C00C35C4BB15BB2054AC3F3080393801388D1
:100D3C005B06FCD50131F2E7704700BF003801407B
:100D4C00024B9B889B06FBD5704700BF00280040D8
:100D5C0038B504460E4D01232B60FFF7F1FF0D4A09
:100D6C0093889BB243F010039380230CA4B213839B
:100D7C009483938823F010031B041B0C9380FFF7C0
:100D8C00DFFF00232B60BDE83840FFF7D9BF00BF61
:100D9C0020000E4200280040034A938B108B9BB21C
:100DAC0043EA0040704700BF00280040094A08B5DC
:100DBC009388DB070CD5938823F001031B041B0CD1
:100DCC009380054B01221A70FFF7E6FF034B186066
:100DDC0008BD00BF00280040CC000020840100208A
:100DEC00CA78F0B5D40648BF8C780D8802F00F0392
:100DFC0048BF234315F0FF0F1DD0016800240126C6
:100E0C00A64006EA0507B74211D14FEA840E0F2619
:100E1C0006FA0EF621EA0601282A03FA0EF641EA32
:100E2C00060101D1476102E0482A08BF076101347D
:100E3C00082CE4D10160FF2D1FD94168002404F176
:100E4C0008070126BE4006EA0507B74211D14FEA52
:100E5C00840E0F2606FA0EF621EA0601282A03FA5A
:100E6C000EF641EA060101D1476102E0482A08BFAB
:100E7C0007610134082CE2D14160F0BDC27810B595
:100E8C0003780AB3164A03F16043D4684278E4430A
:100E9C00C4F30224C4F1040102FA01F10F22E2406E
:100EAC00847803F5614322400A431201D2B283F8DD
:100EBC00002303780122590903F01F0302FA03F3FC
:100ECC00084A42F8213010BD5A09012103F01F03D2
:100EDC00994002F12003034A42F8231010BD00BFD1
:100EEC0000ED00E000E100E0094BFC225A6120B16A
:100EFC00084A013832F810201A6100BF00BF00BF49
:100F0C0000BF00BF00BF00BF00BFFC225A6170478A
:100F1C0000080140781900081A4BFC2210B5044651
:100F2C005A6100BF00BF00BF00BF00BF00BF00BFC1
:100F3C0000BF0078FFF764FE0120FFF7D5FF607853
:100F4C00FFF75EFE0220FFF7CFFFA078FFF758FEF9
:100F5C000320FFF7C9FFE078FFF752FE0420FFF7EC
:100F6C00C3FF2079FFF74CFE0520FFF7BDFF60792A
:100F7C00FFF746FE0620FFF7B7FFBDE81040002044
:100F8C00FFF73EBE0008014008B50C4B1A680AB9C1
:100F9C000B4A1A601A68C31C23F003030949134453
:100FAC008B4206D900F014F80C2303604FF0FF308D
:100FBC0008BD024910460B6008BD00BF8801002027
:100FCC00A0010020004C00200028B8BF4042704710
:100FDC00014B1868704700BF8800002038B5074BDC
:100FEC0005461C68E36B1BB9242000F09BF8E063FA
:100FFC002846E16BBDE8384000F002B888000020BC
:10100C000068444AF0B590FBF2F302FB1302002A8D
:10101C00BCBF02F5A83202F5C0724FF4616492FBBA
:10102C00F4F004FB10224FF03C04886092FBF4F0C7
:10103C0004FB1022A3F52C53B4BF0A3B093B4860B8
:10104C000A60D81C072290FBF2F2C2EBC202821A91
:10105C0048BF07328A6148F6AC62002BBCBF03F56F
:10106C000E3303F2B12393FBF2F240F2B556B4BF48
:10107C004FF0FF370027284C042A08BF032204FB3B
:10108C00023393FBF6F640F26D15244C6FF4B670F8
:10109C0004FB063393FBF5F5042D08BF032500FB79
:1010AC0005334FF4C8707843642400F5FA6004FBF0
:1010BC00020000EB8600284425B92EB9B2FA82F260
:1010CC00520902E0002200E0012203F13B0402F588
:1010DC00B6751444A542BFBF6FF4B675AD1A013096
:1010EC006419A0F26C70CC61486102220C4850F873
:1010FC002200834206DB01320C2AA3EB0003A8BFBB
:10110C000022F3E70133CB6000230A610B6208462F
:10111C00F0BD00BF805101005471FFFF4BFAFFFF7F
:10112C00181A0008024B0146186800F071BA00BF8B
:10113C008800002010B5C9B202449042034605D085
:10114C001C7801308C42F8D1184610BD002010BD1F
:10115C0010B50A44441E914208D014F8013F087897
:10116C00834201D0181A10BD0131F4E7002010BDE4
:10117C0037B5016804463B2911D93C22684600F07A
:10118C006BFB019A6168009B002A0B446360BBBF38
:10119C003C3203F1FF3322602260B8BF63606168A8
:1011AC003B2911D93C22684600F056FB019AA168F4
:1011BC00009B002A0B44A360BBBF3C3203F1FF33FE
:1011CC0062606260B8BFA360A168172911D91822A8
:1011DC00684600F041FB019AE168009B002A0B4431
:1011EC00E360BBBF183203F1FF33A260A260B8BF4B
:1011FC00E36021690B2911D90C22684600F02CFB05
:10120C00019A6169009B002A0B446361BBBF0C32DD
:10121C0003F1FF3322612261B8BF636163699D07EB
:10122C0012D1642193FBF1F201FB123272B903F279
:10123C006C734FF4C87193FBF1F201FB1233002B6A
:10124C0014BF1C231D2302E01C2300E01D23E268B5
:10125C00002A37DCE568002D5CDC2169013921614D
:10126C0001311CD163690B22591E8807616122610F
:10127C0012D1642291FBF2F002FB101171B903F24E
:10128C006B734FF4C87293FBF2F102FB1133002B1A
:10129C0014BF1C231D2302E01C2300E01D23226924
:1012AC00012A0EBF1A461C4951F822202A44E2603A
:1012BC00D0E799422EDD18460132091A0C2AE1605A
:1012CC00226109D02269E168012AF2D0124850F853
:1012DC0022008142F0DC1DE0636900215A1C21616F
:1012EC009107626112D1642092FBF0F100FB112294
:1012FC0072B903F26D734FF4C87193FBF1F201FBF9
:10130C001233002B14BF1C231D23DBE71C23D9E74E
:10131C001D23D7E703B030BDB81900082DE9F047FD
:10132C00804600F0ADFA81464046FFF721FF98E871
:10133C000C003C2000FB0323D8F808204FF4616715
:10134C0007FB0230D8F81030AE4AD8F80C4052F8EF
:10135C002320013C012B1444D8F8143011DD9A07DA
:10136C000FD1642193FBF1F201FB123242B903F26B
:10137C006C754FF4C87295FBF2F102FB115202B975
:10138C00013444F6206103F51C5210328A42C8F82D
:10139C001C401E4600F23181462B21DD46218F0771
:1013AC0014D1642591FBF5F205FB12128AB901F2F6
:1013BC006C774FF4C87297FBF2F502FB1572002A9A
:1013CC0040F26D1208BF4FF4B77204E040F26D1298
:1013DC0001E04FF4B772013199421444DFD143E07C
:1013EC0042D0452199421EDD8E0714D1642591FB14
:1013FC00F5F205FB12128AB901F26C764FF4C87241
:10140C0096FBF2F502FB1562002A40F26D1208BF42
:10141C004FF4B77204E040F26D1201E04FF4B77272
:10142C00A41A0139DEE7452BA8BF45239D071E46AC
:10143C0014D1642293FBF2F302FB13638BB906F213
:10144C006C714FF4C87391FBF3F203FB1213002B76
:10145C0040F26D1308BF4FF4B77304E040F26D1304
:10146C0001E04FF4B773E41A674F07FB040700F071
:10147C00F1F9664B1D68002D00F0AA80D8F82030D9
:10148C00D8F81400012BA8BF01239A46D9F80430D0
:10149C0000F26C7098420DD1D9F83820D9F8203070
:1014AC00D9F83C00D9F81C10D51AAF42A1EB0001B9
:1014BC0005DA07E000F02AF90028EDD17BE0121ADA
:1014CC00974278DBD9F8002012B18F427BDB01E028
:1014DC008F4207DAAF42ACBF00250125BAF1000FED
:1014EC0004DA69E0BAF1000F68DB012585EA0A0A23
:1014FC00BAF1010F60D11B1A05B95B42D8F8002074
:10150C0040461A44C8F800201F44D8F80CA0FFF736
:10151C002FFED8F80C30B3EB0A034DD0012B03DCB3
:10152C00981CD8BF012301E04FF0FF33D8F81C20E2
:10153C001C449B181DD5731E990714D1642193FB71
:10154C00F1F201FB12338BB906F26B764FF4C872D1
:10155C0096FBF2F302FB1366002E40F26D1318BFDC
:10156C004FF4B67324E04FF4B67321E040F26D13E0
:10157C001EE0B20714D1642196FBF1F201FB12625A
:10158C008AB906F26C764FF4C87196FBF1F201FB46
:10159C001266002E40F26D1208BF4FF4B77204E0D1
:1015AC0040F26D1201E04FF4B7729A42D8BF9B1A09
:1015BC00C8F81C3000E05546012D09D1D9F83C0083
:1015CC0001253E1807E0BAF1000F4FF000058DDA47
:1015DC00D9F820003E1800F03EF90434072394FBA0
:1015EC00F3F3C3EBC303E41A48BF0734C8F8205025
:1015FC00C8F818403046BDE8F0874FF0FF30BDE822
:10160C00F08700BF88190008805101009801002064
:10161C0070B5CC1C24F0030408340C2C38BF0C24FB
:10162C00002C064603DA0C233360002070BD8C427C
:10163C00F9D3204A136810461946A1B10A68121B47
:10164C000ED40B2A03D90A608B188C501FE08B42E6
:10165C000BBF5A684A6802605A6018BF0B4616E006
:10166C000B464968E9E7144D2B681BB9304600F06E
:10167C0025F828603046214600F020F8421C03462D
:10168C00D1D0C51C25F0030585420AD11C6003F19D
:10169C000B001A1D20F00700821A0AD051429950F3
:1016AC0070BD3046E91A00F009F80130BBD02B466A
:1016BC00ECE770BD940100209001002038B5064C79
:1016CC000023054608462360FFF75EFC431C02D14D
:1016DC00236803B12B6038BD9C01002030B5037822
:1016EC0023B90B78002B18BF002030BD03461A78A5
:1016FC0001303AB100228C5C34B19D5CA542F5D12D
:10170C000132F8E7104630BD184630BD2DE9F047E0
:10171C00044600F0B5F840F2B1739C4240F393805C
:10172C0040F26D166FF4F66E04EB0E03A4F2B27277
:10173C009B1006FB02366FF06303A4F26D7292FBF2
:10174C00F3F26FF4C86CB3184FF4C87504EB0C06C5
:10175C0096FBF5F61E44642394FBF3FE03FB1E4E2E
:10176C0094FBF5F305FB1345B5FA85F5014644608A
:10177C006D0900F1380C0B7A4A2B11D14B69A70774
:10178C0006EB030202D1BEF1000F00D125B13B2BB9
:10179C00D4BF0023012300E02B461344013B3EE061
:1017AC00442B02D14B69334439E0A20705D1BEF179
:1017BC00000F0CBF2B46012300E02B46B246234AF8
:1017CC004FF0300909FB0329CA68A9F1040701236A
:1017DC00934204DA57F8048F0133C244F8E7012A24
:1017EC00B8BF0122904607270AF1040292FBF7F7D3
:1017FC00C7EBC707D71B4A6908F18048D21B0F6992
:10180C0048BF0732013FC7EBC70708F1FF38BB18C9
:10181C0059F82820934201DB073BFBE753448A69C4
:10182C000B4F07FB03230F6A3B4441F81C3F6145F8
:10183C00A1D1C369826B9342ACBF00230123036027
:10184C000120BDE8F0870020BDE8F087E81900080A
:10185C00805101007047704710B591FBF2F40029DC
:10186C0002FB141304DB002B07DA01349B1A04E08F
:10187C00002BC4BF04F1FF349B180460436010BDFF
:10188C00004870478C000020030102012501010172
:10189C000F0E0E0E0E0F0000100E58023C000A0028
:1018AC0001000008040C020A060E0109050D030BC9
:1018BC00070F24505542582C34302C4747412C30BC
:1018CC002C302C302C302A35410D0A002450554236
:1018DC00582C34302C474C4C2C302C302C302C3099
:1018EC002A35430D0A0024505542582C34302C47CD
:1018FC0053412C302C302C302C302A34450D0A001E
:10190C0024505542582C34302C4753562C302C3004
:10191C002C302C302A35390D0A0024505542582CC5
:10192C0034302C524D432C302C302C302C302A346B
:10193C00370D0A0024505542582C34302C5654473D
:10194C002C302C302C302C302A35450D0A002450EC
:10195C005542582C30302C004E4600445200245036
:10196C005542582C30302A33330D0A00040008003D
:10197C001000200040008000430000000000000028
:10198C001F0000003B0000005A000000780000001F
:10199C0097000000B5000000D4000000F300000028
:1019AC0011010000300100004E0100001F0000007A
:1019BC001C0000001F0000001E0000001F000000A3
:1019CC001E0000001F0000001F0000001E00000091
:1019DC001F0000001E0000001F0000001F00000080
:1019EC001C0000001F0000001E0000001F00000073
:1019FC001E0000001F0000001F0000001E00000061
:101A0C001F0000001E0000001F0000001F0000004F
:101A1C001D0000001F0000001E0000001F00000041
:101A2C001E0000001F0000001F0000001E00000030
:0C1A3C001F0000001E0000001F00000042
:101A48000000000000000000010203040607080966
:101A5800000000000102030401020304060708094C
:101A68000204060800A24A0400000000000000006A
:101A7800000000000000000000000000000000005E
:101A880000000000000000008419000800000000A9
:101A9800000000000000000000000000000000003E
:101AA800000000000000000000000000000000002E
:101AB800000000000000000000000000000000001E
:101AC80000000000000000002800002001000000C5
:101AD800000000004A0000000000000000000000B4
:101AE80000000000000000000000000000000000EE
:101AF8004A00000000000000000000000000000094
:0C1B0800000000000000000000000000D1
:040000050800019D51
:00000001FF
